:100000000C9462000C948A000C948A000C948A0070
:100010000C948A000C948A000C948A000C94780347
:100020000C948A000C948A000C948A000C948A0028
:100030000C948A000C948A000C948A000C948A0018
:100040000C94D6020C948A000C9446030C94200362
:100050000C948A000C948A000C948A000C948A00F8
:100060000C948A000C948A00000000080002010031
:100070000003040700000000000000000000000072
:10008000240027002A000000000023002600290089
:1000900000000000250028002B00040404040404D0
:1000A0000404020202020202030303030303010227
:1000B00004081020408001020408102001020408F6
:1000C0001020850411241FBECFEFD8E0DEBFCDBFC6
:1000D00011E0A0E0B1E0ECE2FCE002C005900D927E
:1000E000A231B107D9F722E0A2E1B1E001C01D922F
:1000F000A430B207E1F710E0C2E6D0E004C02197D7
:10010000FE010E940906C136D107C9F70E94C90441
:100110000C9414060C940000DC0170E0FB01E25525
:10012000FF4FE4911496EC93149750E0FA01E255D6
:10013000FF4FE4911596EC93159766567F4FFB01A0
:100140008491E82FF0E0EE0FFF1FE057FF4F8591FD
:10015000949117969C938E931697FA01E656FF4F4B
:10016000E491F0E0EE0FFF1FEA57FF4F8591949165
:1001700019969C938E931897FB016491E62FF0E0FB
:10018000EE0FFF1FE458FF4F859194911B969C93AF
:100190008E931A9781EC9CE21D969C938E931C97EC
:1001A0000895833081F028F4813099F08230A1F0F5
:1001B00008958730A9F08830B9F08430D1F4809167
:1001C00080008F7D03C0809180008F7780938000B6
:1001D000089584B58F7702C084B58F7D84BD08955E
:1001E0008091B0008F7703C08091B0008F7D8093A5
:1001F000B00008951F93CF93DF93282F30E0F901CB
:10020000E859FF4F8491F901E255FF4FD491F9016C
:10021000E656FF4FC491CC23C1F0162F81110E94E6
:10022000D100EC2FF0E0EE0FFF1FE057FF4FA5913C
:10023000B4919FB7F894111104C08C91D095D82334
:1002400002C0EC91DE2BDC939FBFDF91CF911F9119
:100250000895CF93DF9390E0FC01E255FF4F249186
:10026000FC01E656FF4F8491882361F190E0880FEE
:10027000991FFC01E458FF4FC591D491FC01E05750
:10028000FF4FA591B491611109C09FB7F89488817F
:10029000209582238883EC912E230BC0623061F479
:1002A0009FB7F8948881322F309583238883EC910F
:1002B0002E2B2C939FBF06C08FB7F894E8812E2B6E
:1002C00028838FBFDF91CF9108953FB7F894809135
:1002D0001B0190911C01A0911D01B0911E0126B53A
:1002E000A89B05C02F3F19F00196A11DB11D3FBF6E
:1002F000BA2FA92F982F8827820F911DA11DB11DFC
:10030000BC01CD0142E0660F771F881F991F4A95F7
:10031000D1F708958F929F92AF92BF92CF92DF92C2
:10032000EF92FF926B017C010E9465014B015C0121
:10033000C114D104E104F104F1F00E946501DC0173
:10034000CB0188199909AA09BB09883E9340A105E8
:10035000B10570F321E0C21AD108E108F10888EE76
:10036000880E83E0981EA11CB11CC114D104E104C5
:10037000F10419F7DDCFFF90EF90DF90CF90BF90A1
:10038000AF909F908F900895CF92DF92EF92FF925F
:100390000F931F93CF93DF936C017A018B01C0E021
:1003A000D0E0CE15DF0581F0D8016D918D01D60129
:1003B000ED91FC910190F081E02DC6010995892B0A
:1003C00011F02196EECF7E01C701DF91CF911F91F1
:1003D0000F91FF90EF90DF90CF900895089580E007
:1003E00090E00895FC01538D448D252F30E0842F3B
:1003F00090E0821B930B541710F0CF96089501974D
:100400000895FC01918D828D981761F0828DDF0136
:10041000A80FB11D5D968C91928D9F5F9F73928FF7
:1004200090E008958FEF9FEF0895FC01918D828DEC
:10043000981731F0828DE80FF11D858D90E00895B9
:100440008FEF9FEF0895FC01918D228D892F90E011
:10045000805C9F4F821B91098F73992708958FE1CC
:1004600091E00E94230221E0892B09F420E0822FF1
:100470000895FC01848DDF01A80FB11DA35ABF4F61
:100480002C91848D90E001968F739927848FA68993
:10049000B7892C93A089B1898C91837080648C93E7
:1004A000938D848D981306C00288F389E02D808196
:1004B0008F7D80830895EF92FF920F931F93CF93C8
:1004C000DF93EC0181E0888F9B8D8C8D981305C0A4
:1004D000E889F989808185FD26C0F62E0B8D10E014
:1004E0000F5F1F4F0F731127E02E8C8DE8120CC089
:1004F0000FB607FCFACFE889F989808185FFF5CF2F
:10050000CE010E943902F1CF8B8DFE01E80FF11D63
:10051000E35AFF4FF0829FB7F8940B8FEA89FB896B
:10052000808180620AC09FB7F894EE89FF8960835A
:10053000E889F98980818370806480839FBF81E02E
:1005400090E0DF91CF911F910F91FF90EF90089570
:10055000CF93DF93EC01888D8823C9F0EA89FB896A
:10056000808185FD05C0A889B9898C9186FD0FC061
:100570000FB607FCF5CF808185FFF2CFA889B98936
:100580008C9185FFEDCFCE010E943902E7CFDF913C
:10059000CF91089580E090E0892B29F00E942F02EE
:1005A00081110C94000008950E940F061F920F9273
:1005B0000FB60F9211242F933F938F939F93AF9376
:1005C000BF938091170190911801A0911901B091EA
:1005D0001A013091160123E0230F2D3720F40196E4
:1005E000A11DB11D05C026E8230F0296A11DB11D56
:1005F000209316018093170190931801A09319017D
:10060000B0931A0180911B0190911C01A0911D01D2
:10061000B0911E010196A11DB11D80931B01909305
:100620001C01A0931D01B0931E01BF91AF919F913A
:100630008F913F912F910F900FBE0F901F901895A3
:100640001F920F920FB60F9211242F933F934F9347
:100650005F936F937F938F939F93AF93BF93EF932A
:10066000FF938FE191E00E943902FF91EF91BF91DA
:10067000AF919F918F917F916F915F914F913F913A
:100680002F910F900FBE0F901F9018951F920F92F1
:100690000FB60F9211242F938F939F93EF93FF9395
:1006A000E0912F01F09130018081E0913501F091CE
:1006B000360182FD12C09081809138018F5F8F7367
:1006C00020913901821751F0E0913801F0E0E15EAC
:1006D000FE4F958F8093380101C08081FF91EF918B
:1006E0009F918F912F910F900FBE0F901F90189593
:1006F0001F920F920FB60F9211242F933F934F9397
:100700005F936F937F938F939F93AF93BF93EF9379
:10071000FF93E0E0F0E00995FF91EF91BF91AF9179
:100720009F918F917F916F915F914F913F912F9109
:100730000F900FBE0F901F9018950F931F93CF939C
:10074000DF93FC01A285B3859C918481892B8C93D6
:10075000A681B7819C918481809589238C938BE0BD
:1007600090E00197F1F7A681B7819C918481892B54
:100770008C9383E290E00197F1F7A681B7819C9179
:100780008481809589238C93A285B3859C918481F3
:10079000809589238C93A085B1859C91858189233F
:1007A00009F058C0EF010E9465012C853D85890143
:1007B00020E030E00855194E2F4F3F4FDC01CB01B0
:1007C000800F911FA21FB31F8E879F87A88BB98BA5
:1007D000E885F98590818D81892361F40E94650106
:1007E0000E851F85288939890617170728073907B5
:1007F00078F730C00E9465012C853D85DC01CB0176
:10080000820F931FA11DB11D8E879F87A88BB98B67
:10081000E885F98590818D81892361F00E946501C9
:100820000E851F8528893989061717072807390774
:1008300078F710C00E9465012C853D85A9014550BF
:1008400051092E853F85FA01E21BF30BCF01860F7C
:10085000971F02C080E090E0DF91CF911F910F9130
:100860000895CF93C82F61E00E942901EC2FF0E09A
:10087000E859FF4FE491E33019F150F4E130D1F041
:10088000E230E1F584B5806284BD88EC88BD3BC070
:10089000E73011F1E83049F1E43081F580918000D2
:1008A00080628093800088EC90E090938B0080932E
:1008B0008A0029C084B5806884BD88EC87BD23C0C8
:1008C0008091800080688093800088EC90E0909315
:1008D00089008093880017C08091B0008068809361
:1008E000B00088EC8093B3000EC08091B0008062AD
:1008F0008093B00088EC8093B40005C061E08C2F39
:10090000CF910C94FA00CF910895EFE1F1E01382BA
:10091000128288EE93E0A0E0B0E084839583A68302
:10092000B78384E091E09183808385EC90E09587A4
:10093000848784EC90E09787868780EC90E0918BA9
:10094000808B81EC90E0938B828B82EC90E0958B96
:10095000848B86EC90E0978B868B118E128E138E93
:10096000148E42E063E082EF91E00E948C0044E04C
:1009700065E080EE91E00E948C0046E067E08EEC3E
:1009800091E00E948C004BE06CE08CEB91E00C94C9
:100990008C00789484B5826084BD84B5816084BD08
:1009A00085B5826085BD85B5816085BD80916E000D
:1009B000816080936E00109281008091810082603E
:1009C000809381008091810081608093810080917B
:1009D00080008160809380008091B100846080936A
:1009E000B1008091B00081608093B00080917A0066
:1009F000846080937A0080917A00826080937A008C
:100A000080917A00816080937A0080917A0080687A
:100A100080937A001092C100E0912F01F091300193
:100A200082E08083E0912B01F0912C011082E09113
:100A30002D01F0912E018FEC808310923701E0910F
:100A40003301F091340186E08083E0913101F0912F
:100A50003201808180618083E0913101F091320127
:100A6000808188608083E0913101F0913201808142
:100A700080688083E0913101F091320180818F7D27
:100A8000808361E08DE00E94290160E080E10E94A6
:100A9000290198E7292E90E0392E2EEB822E20E0B6
:100AA000922E3AEAA32E30E0B32E49E3442E512C85
:100AB000612C712C62E370E080E090E00E948A017A
:100AC000F1018491F401C491F501D491DD2399F0F1
:100AD00081110E94D100ED2FF0E0EE0FFF1FEA57C9
:100AE000FF4FA591B4918C91C82329F061E08DE06E
:100AF0000E94FA00FBCF82EF91E00E949D036C01FF
:100B000080EE91E00E949D03BC0180E090E0A30193
:100B100092010E94E705E9018EEC91E00E949D039D
:100B20008C018CEB91E00E949D037C01B60180E07A
:100B300090E0A30192010E94E705232B11F189E0C7
:100B4000CD2BD1F00E94310460E08AE00E94FA00CF
:100B500068EE73E080E090E00E948A018AE00E94E3
:100B6000310460E089E00E94FA0068EE73E080E002
:100B700090E00E948A0128C00E94310460E08AE06F
:100B800021C0CD2B39F08AE00E94310460E089E079
:100B90000E94FA00B80180E090E0A30192010E9457
:100BA000E705232B49F4B70180E090E0A30192010F
:100BB0000E94E705232B41F064E68AE00E94FA00D8
:100BC00064E689E00E94FA000E94CA0273CFA1E2A3
:100BD0001A2EAA1BBB1BFD010DC0AA1FBB1FEE1FB7
:100BE000FF1FA217B307E407F50720F0A21BB30B02
:100BF000E40BF50B661F771F881F991F1A9469F77E
:100C000060957095809590959B01AC01BD01CF01D9
:100C10000895EE0FFF1F0590F491E02D099481E0F7
:0C0C200090E0F8940C941406F894FFCFB8
:100C2C00000000005B02C401F201A80223020102D1
:020C3C0015029F
:00000001FF
