:100000000C9490000C94B8000C94B8000C946E05FD
:100010000C946E050C946E050C94B8000C94E805D5
:100020000C94B8000C94B8000C94B8000C94B80070
:100030000C94B8000C94B8000C94B8000C94B80060
:100040000C94C5070C94B8000C940E040C94E803AF
:100050000C94B8000C94B8000C94B8000C94B80040
:100060000C9440040C94B800036EDB363D9A9999C9
:10007000993DABAAAA2A3E000000803F072C7AA532
:10008000BA6CC590DA3B9365FC8BBC53F810FD3C11
:100090005692834DBD879D3AB63DCBC9BF5BBE73BB
:1000A000DA0FC93F05A84CCDB2D44EB93836A902F3
:1000B0000C50B9918688083CA6AAAA2ABE00000066
:1000C000803F000000080002010000030407000058
:1000D00000000000000000000000240027002A00AB
:1000E0000000000023002600290000000000250079
:1000F00028002B0004040404040404040202020285
:1001000002020303030303030102040810204080DA
:10011000010204081020010204081020E70DCB0D95
:1001200011241FBECFEFD8E0DEBFCDBF11E0A0E0AD
:10013000B1E0ECEEF6E202C005900D92AE3CB107E4
:10014000D9F724E0AEECB1E001C01D92A831B207AE
:10015000E1F710E0CFE8D0E004C02197FE010E9453
:100160004F13CE38D107C9F70E9488080C94691341
:100170000C94000008950895FC01538D448D252FA3
:1001800030E0842F90E0821B930B541710F0CF9631
:10019000089501970895FC01918D828D981761F063
:1001A000828DDF01A80FB11D5D968C91928D9F5FAE
:1001B0009F73928F90E008958FEF9FEF0895FC0159
:1001C000918D828D981731F0828DE80FF11D858D0C
:1001D00090E008958FEF9FEF0895FC01918D228D9F
:1001E000892F90E0805C9F4F821B91098F73992724
:1001F00008958FEF92E00E94ED0021E0892B09F431
:1002000020E0822F0895FC01848DDF01A80FB11D2D
:10021000A35ABF4F2C91848D90E001968F7399273C
:10022000848FA689B7892C93A089B1898C9183701A
:1002300080648C93938D848D981306C00288F38913
:10024000E02D80818F7D80830895EF92FF920F9340
:100250001F93CF93DF93EC0181E0888F9B8D8C8D72
:10026000981305C0E889F989808185FD26C0F62E9E
:100270000B8D10E00F5F1F4F0F731127E02E8C8D39
:10028000E8120CC00FB607FCFACFE889F989808123
:1002900085FFF5CFCE010E940301F1CF8B8DFE01CA
:1002A000E80FF11DE35AFF4FF0829FB7F8940B8FD0
:1002B000EA89FB89808180620AC09FB7F894EE8941
:1002C000FF896083E889F9898081837080648083F5
:1002D0009FBF81E090E0DF91CF911F910F91FF9040
:1002E000EF900895CF93DF93EC01888D8823C9F0B8
:1002F000EA89FB89808185FD05C0A889B9898C912F
:1003000086FD0FC00FB607FCF5CF808185FFF2CFC9
:10031000A889B9898C9185FFEDCFCE010E94030198
:10032000E7CFDF91CF91089580E090E0892B29F00D
:100330000E94F90081110C940000089585ED8093CE
:10034000BC008091BC0084FDFCCF1092DA020895BD
:1003500040915202262F30E0240F311D2132310509
:10036000DCF42091DA022430C9F4FC0180E090E052
:10037000861758F4309152022191DC01AE5CBD4FDA
:10038000A30FB11D2C930196F3CF80915202680FF9
:100390006093520280E0089581E0089582E008951C
:1003A00020917702309178022817390771F49091E3
:1003B000750280917602981741F0E0917502F0E0A5
:1003C000EE50FE4F808190E008958FEF9FEF0895EB
:1003D00008951F93CF93DF93DC015C968D919C91E0
:1003E0005D97009739F421E030E013963C932E930B
:1003F00012973BC05196ED91FC91529750962C91DB
:100400005097322F30951FB75E964C915E97742FA0
:10041000727041FD6095F8944081772311F0422B72
:1004200001C043234083EC012197F1F748E050815C
:1004300060FF02C0522B01C053235083EC0121976F
:10044000F1F76695415099F78081772319F083235E
:10045000808302C0282B20831FBF5C968D919C91C6
:100460005D970197F1F781E090E0DF91CF911F91C7
:10047000089520917702309178022817390771F496
:10048000809176022091750290E0805C9F4F821BE4
:10049000910960E470E00E94DB12089580E090E032
:1004A0000895209177023091780228173907B9F41E
:1004B0009091750280917602981789F0E09175020B
:1004C000F0E0EE50FE4F80812091750230E02F5F0A
:1004D0003F4F2F7333272093750290E008958FEFDD
:1004E0009FEF0895E0917E0280917D02E81730F43D
:1004F000F0E0EE52FE4F808190E008958FEF9FEF85
:10050000089590917E0280917D02981750F4E92F12
:10051000F0E0EE52FE4F208130E09F5F90937E022C
:1005200002C02FEF3FEFC901089580917D0290E056
:1005300020917E02821B91090895CF92DF92EF9263
:10054000FF920F931F93CF93DF937C01CB018A011E
:100550002091DB02222389F0EB016B01C40ED51E32
:10056000CC15DD0569F06991D701ED91FC91019001
:10057000F081E02DC7010995F3CF642F0E94A801F7
:10058000C801DF91CF911F910F91FF90EF90DF9005
:10059000CF900895CF93DF931F92CDB7DEB76983D5
:1005A0002091DB022223D1F02091FE02203240F084
:1005B00021E030E0FC013383228380E090E015C02D
:1005C0008091DC02E82FF0E0E352FD4F99819083A7
:1005D0008F5F8093DC028093FE0205C061E0CE0154
:1005E00001960E94A80181E090E00F90DF91CF91E9
:1005F0000895089580E090E00895CF9381E080937E
:10060000DB0288E68093FD021092DC021092FE026B
:100610008BE390E00E947C060E9481068091DA02C2
:100620008111FCCF81E08093DA028093D9029FEFA1
:100630009093D8021092D7029DE09093D6028093B7
:10064000B5028091B502806D8093B5028091B402AD
:10065000813061F41092B4028091B5028093BB00A6
:100660008091BC0083FDF8CF85EC01C085EE8093BE
:10067000BC008091DA028130E1F38091D7028E30A4
:1006800018F49091D70201C09EE0A6EBB2E0E2ED33
:10069000F1E080E0891721F02D9121938F5FFACF4F
:1006A00010927E0280937D0290E08E309105ECF3F3
:1006B0008CE993E00E948102C82F8CE993E00E94AC
:1006C000810220E030E03C2F822B932B092E000C7E
:1006D000AA0BBB0B8093920290939302A093940277
:1006E000B09395028CE993E00E948102C82F8CE9B7
:1006F00093E00E94810220E030E03C2F822B932B7C
:10070000092E000CAA0BBB0B80938E0290938F02D4
:10071000A0939002B09391028CE993E00E94810231
:10072000C82F8CE993E00E94810220E030E03C2F4A
:10073000822B932B092E000CAA0BBB0B80938A02F1
:1007400090938B02A0938C02B0938D028CE993E07E
:100750000E9481028CE993E00E9481028CE993E07F
:100760000E948102C82F8CE993E00E94810220E060
:1007700030E03C2F822B932B9093AF028093AE02FC
:100780008CE993E00E948102C82F8CE993E00E94DB
:10079000810220E030E03C2F822B932B9093A90222
:1007A0008093A8028CE993E00E948102C82F8CE913
:1007B00093E00E94810220E030E03C2F822B932BBB
:1007C0009093A3028093A202CF9108950E94641394
:1007D0001F920F920FB60F9211242F933F934F93B6
:1007E0005F936F937F938F939F93AF93BF93EF9399
:1007F000FF938FEF92E00E940301FF91EF91BF9171
:10080000AF919F918F917F916F915F914F913F91A8
:100810002F910F900FBE0F901F9018951F920F925F
:100820000FB60F9211242F938F939F93EF93FF9303
:10083000E0910F03F09110038081E0911503F09196
:10084000160382FD12C09081809118038F5F8F7311
:1008500020911903821751F0E0911803F0E0E15064
:10086000FD4F958F8093180301C08081FF91EF9118
:100870009F918F912F910F900FBE0F901F90189501
:100880001F920F920FB60F9211242F933F934F9305
:100890005F936F937F938F939F93AF93BF93EF93E8
:1008A000FF938091B900887F803609F49CC068F579
:1008B000883209F45BC090F4803109F454C038F4F4
:1008C000882309F4F6C0883009F44DC0F6C0883199
:1008D00009F44CC0803209F45DC0EFC0803409F4E3
:1008E00068C048F4803309F455C0883309F0E5C086
:1008F0008093D802D8C0803509F44FC0883509F4F8
:100900005DC0883409F0D9C0D6C0883909F4C7C0A1
:10091000A8F4883709F467C038F4883609F463C04E
:10092000803709F460C0C9C0883809F4B8C080397C
:1009300009F45FC0803809F0C0C05BC0803B09F497
:1009400086C038F4803A09F466C0883A09F47FC05A
:10095000B4C0803C09F4A7C0883C09F4A4C0883B1B
:1009600009F48AC0AAC08091B50210C09091D70244
:100970008091D602981770F5E091D70281E08E0F32
:100980008093D702F0E0EA54FD4F80818093BB0052
:1009900085EC86C08093D8028EC0E091D70281E0BA
:1009A0008E0F8093D7028091BB00F0E0EA54FD4F98
:1009B00080839091D7028091D6026EC0E091D702D9
:1009C00081E08E0F8093D7028091BB00F0E0EA5463
:1009D000FD4F80838091D90281116DC081E08093A9
:1009E000B40284EA61C083E08093DA021092740258
:1009F000CFCF80917402803208F051C0E091740230
:100A000081E08E0F809374028091BB00F0E0EC5A7D
:100A1000FD4F8083BDCF85EC8093BC001092DA023D
:100A200080917402803230F4E0917402F0E0EC5A6C
:100A3000FD4F10826091740270E0E0917902F091B4
:100A40007A0284E592E009951092740236C084E03F
:100A50008093DA021092530210925202E0917B02CC
:100A6000F0917C02099580915202811105C081E0CC
:100A70008093520210923202E091530281E08E0F75
:100A800080935302F0E0EE5CFD4F80818093BB00C9
:100A90009091530280915202981708F479CF85E81B
:100AA0008093BC000AC085EC8093BC001092DA02EF
:100AB00004C01092D8020E949E01FF91EF91BF9155
:100AC000AF919F918F917F916F915F914F913F91E6
:100AD0002F910F900FBE0F901F9018951F920F929D
:100AE0000FB60F9211242F933F934F935F936F9301
:100AF0007F938F939F93AF93BF93EF93FF93E09177
:100B00007702F0917802309709F451C0968DA6854E
:100B1000B785858591FF04C09C91892329F447C03E
:100B20009C91892309F043C0A389B4899C9185894C
:100B3000809589238C93868997890197F1F7608D39
:100B4000718DA685B785558538E020E0CB010197EA
:100B5000F1F7822F90E095958795282F4C914523AA
:100B600009F02068315091F7868D81FD20958091A4
:100B7000760290E001968F739927309175023817AD
:100B800049F0A0917602B0E0AE50BE4F2C93809316
:100B9000760203C0868D8160868F828D938D01974A
:100BA000F1F7A389B4899C918589892B8C93FF9156
:100BB000EF91BF91AF919F918F917F916F915F91D5
:100BC0004F913F912F910F900FBE0F901F9018954E
:100BD0001F920F920FB60F9211242F933F934F93B2
:100BE0005F936F937F938F939F93AF93BF93EF9395
:100BF000FF93E0E0F0E00995FF91EF91BF91AF9195
:100C00009F918F917F916F915F914F913F912F9124
:100C10000F900FBE0F901F901895DC0170E0FB0144
:100C2000E85FFE4FE4911496EC93149750E0FA01BC
:100C3000E85FFE4FE4911596EC9315976C507F4F4B
:100C4000FB018491E82FF0E0EE0FFF1FE651FF4F0C
:100C50008591949117969C938E931697FA01EC5078
:100C6000FF4FE491F0E0EE0FFF1FE052FF4F859140
:100C7000949119969C938E931897FB016491E62F9B
:100C8000F0E0EE0FFF1FEA52FF4F859194911B9603
:100C90009C938E931A978DE796E11D969C938E9365
:100CA0001C970895CF92DF92EF92FF920F931F93BC
:100CB000CF93DF936C017A018B01C0E0D0E0CE15B9
:100CC000DF0581F0D8016D918D01D601ED91FC9188
:100CD0000190F081E02DC6010995892B11F0219634
:100CE000EECF7E01C701DF91CF911F910F91FF9051
:100CF000EF90DF90CF900895682F8CE993E00C94EB
:100D0000CA023091FE02313208F04BC08091DA0203
:100D10008111FCCF9091FD0222E02093DA0221E0C4
:100D20002093D9022FEF2093D8021092D70230934C
:100D3000D602EDEDF2E0A6EBB2E020E0321721F0B2
:100D400041914D932F5FFACF1092B5022091B502D9
:100D5000990F922B9093B5029091B402913061F467
:100D60001092B4029091B5029093BB009091BC0098
:100D700093FDF8CF95EC01C095EE9093BC00909157
:100D8000DA029230E1F39091D8029F3F79F080919E
:100D9000D802803241F08091D802803331F084E073
:100DA00005C081E003C082E001C083E01092DC0254
:100DB0001092FE021092DB02089590E0FC01EE53C7
:100DC000FF4F2491FC01E85FFE4F3491FC01EC5091
:100DD000FF4FE491EE2309F43CC0222339F1233084
:100DE00091F038F42130A9F0223001F584B58F7DDF
:100DF00012C0273091F02830A1F02430B9F480914E
:100E000080008F7D03C0809180008F778093800069
:100E10000DC084B58F7784BD09C08091B0008F77F5
:100E200003C08091B0008F7D8093B000F0E0EE0FA2
:100E3000FF1FE651FF4FA591B4919FB7F894611140
:100E400004C08C913095382302C0EC913E2B3C932A
:100E50009FBF0895CF93DF9390E0FC01E85FFE4FC2
:100E60002491FC01EC50FF4F8491882361F190E0C4
:100E7000880F991FFC01EA52FF4FC591D491FC01E4
:100E8000E651FF4FA591B491611109C09FB7F89445
:100E90008881209582238883EC912E230BC06230B9
:100EA00061F49FB7F8948881322F3095832388832B
:100EB000EC912E2B2C939FBF06C08FB7F894E8813E
:100EC0002E2B28838FBFDF91CF9108953FB7F894E1
:100ED0008091140490911504A0911604B091170408
:100EE00026B5A89B05C02F3F19F00196A11DB11D85
:100EF0003FBFBA2FA92F982F8827820F911DA11DC0
:100F0000B11DBC01CD0142E0660F771F881F991FFC
:100F10004A95D1F708958F929F92AF92BF92CF9248
:100F2000DF92EF92FF926B017C010E9466074B01FA
:100F30005C01C114D104E104F104F1F00E946607E0
:100F4000DC01CB0188199909AA09BB09883E9340A5
:100F5000A105B10570F321E0C21AD108E108F1083A
:100F600088EE880E83E0981EA11CB11CC114D10428
:100F7000E104F10419F7DDCFFF90EF90DF90CF90FF
:100F8000BF90AF909F908F9008951F920F920FB6D1
:100F90000F9211242F933F938F939F93AF93BF93FF
:100FA0008091100490911104A0911204B091130447
:100FB00030910F0423E0230F2D3720F40196A11D5B
:100FC000B11D05C026E8230F0296A11DB11D209377
:100FD0000F048093100490931104A0931204B09313
:100FE00013048091140490911504A0911604B091FB
:100FF00017040196A11DB11D80931404909315044C
:10100000A0931604B0931704BF91AF919F918F9155
:101010003F912F910F900FBE0F901F901895611563
:10102000710579F0FB0101900020E9F73197AF01DC
:10103000461B570BDC01ED91FC910280F381E02D02
:10104000099480E090E008958F929F92AF92BF92B2
:101050000F931F93CF93DF93CDB7DEB7A1970FB652
:10106000F894DEBF0FBECDBF19A2423008F44AE0AB
:101070008E010F5D1F4F842E912CA12CB12CA50148
:1010800094010E94EF12E62FB901CA010150110923
:10109000EA3014F4E05D01C0E95CD801EC93232B45
:1010A000242B252B61F7B8018FEF92E00E940F08E7
:1010B000A1960FB6F894DEBF0FBECDBFDF91CF91E2
:1010C0001F910F91BF90AF909F908F900895CF92F6
:1010D000DF92EF92FF92CF93DF936B017C016DE281
:1010E0008FEF92E00E942501EC0166277727CB0164
:1010F0006C197D098E099F094AE00E9424088C0F13
:101100009D1FDF91CF91FF90EF90DF90CF900895DA
:10111000CF93DF93CDB7DEB72C970FB6F894DEBF31
:101120000FBECDBF789484B5826084BD84B58160E4
:1011300084BD85B5826085BD85B5816085BD8091A2
:101140006E00816080936E0010928100809181001A
:101150008260809381008091810081608093810012
:10116000809180008160809380008091B1008460D4
:101170008093B1008091B00081608093B000809135
:101180007A00846080937A0080917A0082608093F4
:101190007A0080917A00816080937A0080917A0051
:1011A000806880937A001092C10060E177E280E06D
:1011B00090E00E948B07E0910F03F091100382E012
:1011C0008083E0910B03F0910C031082E0910D03FA
:1011D000F0910E038FEC808310921703E0911303BC
:1011E000F091140386E08083E0911103F0911203E3
:1011F000808180618083E0911103F09112038081EE
:1012000088608083E0911103F091120380818068EF
:101210008083E0911103F091120380818F7D8083A0
:1012200010920B0410920A04109209041092080400
:1012300010920704109206048DE991E090930D043A
:1012400080930C049091FC03963108F058C02DEB6C
:1012500030E030930704209306042BE931E030930B
:101260000904209308042CE231E030930B0420930E
:101270000A0440916800983058F031E09E3008F43C
:1012800030E021E0822F01C0880F3A95EAF701C0D3
:1012900084E0842B80936800983038F09E3040F0D2
:1012A000963148F020E030E008C02DE630E005C07F
:1012B0002BE630E002C02CE630E0309304042093AB
:1012C0000304983030F481E001C0880F9A95EAF762
:1012D0000EC0292F30E09E3018F42850310902C08A
:1012E0002E50310981E001C0880F2A95EAF78093DA
:1012F000050480910C0490910D040197F1F7809101
:101300000A0490910B04892B49F1E0917702F09146
:10131000780223E0E03FF20709F1309739F0A38922
:10132000B4899C918589809589238C9380910E0442
:101330008E7F80930E04109276021092750280EFD9
:1013400093E09093780280937702E0910304F09108
:101350000404908180910504892B808310927E0281
:1013600010927D021092DC021092FE021092DA02BC
:1013700031E03093D9021092B40261E082E10E9420
:10138000DD0661E083E10E94DD068091B9008E7F79
:101390008093B9008091B9008D7F8093B90088E473
:1013A0008093B80085E48093BC008AEB90E0909332
:1013B0007C0280937B028BEB90E090937A02809387
:1013C000790241E04093DB0258E65093FD0210920F
:1013D000DC021092FE028BE690E00E947C0680E028
:1013E00090E00E947C060E94810681E08093DB02EF
:1013F00098E69093FD021092DC021092FE028CE1BE
:1014000090E00E947C0680E190E00E947C060E94B1
:101410008106A1E0A093DB02B8E6B093FD02109232
:10142000DC021092FE028BE190E00E947C0688E0D4
:1014300090E00E947C060E9481061E821D820DE7BC
:1014400010E08D819E81B8010E94DB12892B11F47E
:101450000E94FD024090AE025090AF02052C000C9D
:10146000660877088091AA029091AB02A091AC0225
:10147000B091AD02480E591E6A1E7B1E4092AA0210
:101480005092AB026092AC027092AD028090A802C2
:101490009090A902092C000CAA08BB088091A40214
:1014A0009091A502A091A602B091A702880E991E64
:1014B000AA1EBB1E8092A4029092A502A092A60230
:1014C000B092A702C090A202D090A3020D2C000CF3
:1014D000EE08FF0880919E0290919F02A091A002C9
:1014E000B091A102A7019601280F391F4A1F5B1F67
:1014F00029833A834B835C8320939E0230939F021F
:101500004093A0025093A10263E070E080E090E07D
:101510000E948B074D815E814F5F5F4F5E834D83DD
:10152000403D574009F08DCF80EDC82E87E0D82E82
:10153000E12CF12CC301B201A70196010E94111305
:101540002093AA023093AB024093AC025093AD02B9
:10155000C501B401A70196010E9411132093A402B2
:101560003093A5024093A6025093A70269817A8125
:101570008B819C81A70196010E94111320939E02EA
:1015800030939F024093A0025093A1020E946607ED
:1015900061E08DE00E942A0760E08DE00E94DD0698
:1015A000332433940E94FD02A091AE02B091AF02A9
:1015B0008091AA029091AB02A81BB90BBA83A983B0
:1015C000B093AF02A093AE026091A8027091A902FD
:1015D0008091A4029091A502681B790B7093A902D7
:1015E0006093A8020091A2021091A30280919E0232
:1015F00090919F02081B190B1093A3020093A20263
:10160000072E000C880B990B0E94D51020ED32E2BA
:1016100040E858E30E94BC11209196023091970255
:1016200040919802509199020E94A40F6B017C0195
:10163000B801110F880B990B0E94D5102BE733E1ED
:101640004FE855E30E94BC110E9429124B015C0136
:1016500029813A81B901330F880B990B0E94D5106B
:1016600020ED32E240E858E30E94BC1120919A023A
:1016700030919B0240919C0250919D020E94A40FC8
:101680002B013C01A5019401C701B6010E94BC11C8
:101690009B01AC01C301B2010E94A40F6D837E8344
:1016A0008F8398879B01AC01C501B4010E94BC11D6
:1016B0009B01AC01C701B6010E94A30F69877A871D
:1016C0008B879C8740909202509093026090940286
:1016D0007090950280908E0290908F02A090900260
:1016E000B090910280918A0290918B02A0918C021D
:1016F000B0918D0289839A83AB83BC83A30192014D
:10170000C301B2010E94CB126B017C01A5019401BF
:10171000C501B4010E94CB12C60ED71EE81EF91EE9
:1017200029813A814B815C81CA01B9010E94CB12A7
:101730006C0D7D1D8E1D9F1D0E94D5100E943712BD
:101740000E949D100E94D5106B017C01C501B4015F
:101750000E94D510A70196010E942B100E94101024
:101760002BE13FE245E652E40E94BC114B015C01D3
:10177000C301B2010E94D510A70196010E942B104F
:101780000E9410102BE13FE245E652EC0E94BC1192
:101790006B017C0180918902882309F445C029EC02
:1017A00035EE4FE75FE36D817E818F8198850E94E2
:1017B000BC112B013C0127E137EB41ED59E3C50199
:1017C000B4010E94BC119B01AC01C301B2010E9493
:1017D000A40F60939A0270939B0280939C02909353
:1017E0009D0229EC35EE4FE75FE369857A858B85AD
:1017F0009C850E94BC114B015C0127E137EB41ED58
:1018000059E3C701B6010E94BC119B01AC01C5019F
:10181000B4010E94A40F6093960270939702809384
:1018200098029093990212C080929A0290929B0221
:10183000A0929C02B0929D02C0929602D092970212
:10184000E0929802F09299023092890226E636E6FA
:1018500046E65FE36091850270918602809187027F
:10186000909188020E94BC116B017C012DEC3CEC34
:101870004CEC5DE360919A0270919B0280919C0216
:1018800090919D020E94BC119B01AC01C701B60161
:101890000E94A40F6B017C01609385027093860205
:1018A000809387029093880226E636E646E65FE359
:1018B00060918102709182028091830290918402F2
:1018C0000E94BC114B015C012DEC3CEC4CEC5DE347
:1018D000609196027091970280919802909199027E
:1018E0000E94BC119B01AC01C501B4010E94A40F70
:1018F00060938102709382028093830290938402AA
:1019000080917F0290918002029721F410928002D0
:1019100010927F0280917F029091800201969093B5
:10192000800280937F02019721F520E030E040E2C1
:1019300051E4C701B6010E94BC110E949D10709332
:10194000B3026093B20266E371E08FEF92E00E940F
:101950000F086091B2027091B302072E000C880B41
:10196000990B97FF03C00E94670803C04AE00E94DA
:10197000240880917F0290918002029781F520E0F7
:1019800030E040E251E460918102709182028091E6
:101990008302909184020E94BC110E949D1070935A
:1019A000B1026093B0026FE371E08FEF92E00E94AA
:1019B0000F086091B0027091B102072E000C880BE5
:1019C000990B97FF03C00E94670803C04AE00E947A
:1019D000240867E671E08FEF92E00E940F08809183
:1019E000B2029091B30297FF03C09195819591093E
:1019F000893C91056CF48091B0029091B10297FFFF
:101A000003C0919581959109893C91050CF447C0DB
:101A100067E471E080EF93E00E940F0860ED77E0EB
:101A200080E090E00E948B0763E571E080EF93E037
:101A30000E940F0860ED77E080E090E00E948B0745
:101A40006AE671E080EF93E00E940F0862EB71E0BC
:101A500080EF93E00E940F0860EA7FE080E090E072
:101A60000E948B0764EB71E080EF93E00E940F0807
:101A700060EA7FE080E090E00E948B0761E08DE00B
:101A80000E94DD0665EC71E08FEF92E00E940F0886
:101A900067E671E08FEF92E00E940F08EFCF8EEDC6
:101AA00093E00E940F0FBC0180E090E029E330E05A
:101AB00040E050E00E94EF1289018CEC93E00E941C
:101AC0000F0FBC0180E090E029E330E040E050E0FF
:101AD0000E94EF123A8329838AEB93E00E940F0F52
:101AE0006C0188EA93E00E940F0FBC0180E090E057
:101AF00029E330E040E050E00E94EF127901B601A6
:101B000080E090E029E330E040E050E00E94EF12F6
:101B1000232B11F4EF2831F062E48AE00E94DD0605
:101B200062E433C0012B51F0A981BA8189E0AB2B6B
:101B300069F40E94BB0E60E08AE028C029813A81E6
:101B4000232BF1F08AE00E94BB0E1EC00E94BB0E48
:101B500060E08AE00E94DD0668EE73E080E090E0DD
:101B60000E948B078AE00E94BB0E60E089E00E9421
:101B7000DD0668EE73E080E090E00E948B0708C00D
:101B800060E08AE00E94DD0660E089E00E94DD06F8
:101B90000E94940107CD88E291E09093F103809335
:101BA000F0038091770290917802805F934071F406
:101BB000E0910304F09104049081809105048095E4
:101BC00089238083109278021092770208951092F0
:101BD00002031092010388EE93E0A0E0B0E080934E
:101BE000030390930403A0930503B093060324E03A
:101BF00031E0309300032093FF0225EC30E0309376
:101C00000C0320930B0324EC30E030930E0320935D
:101C10000D0320EC30E03093100320930F0321ECF0
:101C200030E0309312032093110322EC30E0309324
:101C300014032093130326EC30E030931603209313
:101C40001503109218031092190310921A031092A0
:101C50001B0310929F0310929E038093A003909306
:101C6000A103A093A203B093A30326E131E0309334
:101C70009D0320939C031092F3031092F203809330
:101C8000F4039093F503A093F603B093F70388E26F
:101C900091E09093F1038093F00310920704109267
:101CA0000604109209041092080410920B0410927A
:101CB0000A0410920D0410920C0460910E046E7FC1
:101CC0006D7F60930E046695617081E068278FE0F8
:101CD0000E94DD0661E08FE00E942A07E7E1F1E063
:101CE000E491E0930004E3E0F1E0E491F0E0EE0F32
:101CF000FF1FE651FF4F85919491909302048093CA
:101D0000010460E08EE00E942A0780910E0481FDAC
:101D100004C061E08EE00E94DD068EE08093FC034B
:101D2000E6E1F1E0E491E093FD03E2E0F1E0E4912B
:101D3000F0E0EE0FFF1FE052FF4F859194919093DA
:101D4000FF038093FE0342E063E08EED93E00E9488
:101D50000D0644E065E08CEC93E00E940D0646E041
:101D600067E08AEB93E00E940D064BE06CE088EAA6
:101D700093E00C940D06CF93C82F61E00E942A07D0
:101D8000EC2FF0E0EE53FF4FE491E33019F150F403
:101D9000E130D1F0E230E1F584B5806284BD88ECB9
:101DA00088BD3BC0E73011F1E83049F1E43081F5FE
:101DB0008091800080628093800088EC90E0909316
:101DC0008B0080938A0029C084B5806884BD88EC2C
:101DD00087BD23C08091800080688093800088EC5C
:101DE00090E0909389008093880017C08091B000A4
:101DF00080688093B00088EC8093B3000EC080911F
:101E0000B00080628093B00088EC8093B40005C07D
:101E100061E08C2FCF910C94DD06CF9108950F9344
:101E20001F93CF93DF93FC01A285B3859C9184819E
:101E3000892B8C93A681B7819C918481809589237D
:101E40008C938BE090E00197F1F7A681B7819C918C
:101E50008481892B8C9383E290E00197F1F7A6812E
:101E6000B7819C918481809589238C93A285B385C9
:101E70009C918481809589238C93A085B1859C91C8
:101E80008581892309F058C0EF010E9466072C85DF
:101E90003D85890120E030E00855194E2F4F3F4F16
:101EA000DC01CB01800F911FA21FB31F8E879F877C
:101EB000A88BB98BE885F98590818D81892361F4A0
:101EC0000E9466070E851F8528893989061717071E
:101ED0002807390778F730C00E9466072C853D85B2
:101EE000DC01CB01820F931FA11DB11D8E879F873F
:101EF000A88BB98BE885F98590818D81892361F064
:101F00000E9466070E851F852889398906171707DD
:101F10002807390778F710C00E9466072C853D8591
:101F2000A901455051092E853F85FA01E21BF30BAB
:101F3000CF01860F971F02C080E090E0DF91CF9124
:101F40001F910F9108955058BB27AA270E94BB0FDD
:101F50000C9482110E94741138F00E947B1120F0C1
:101F600039F49F3F19F426F40C9436110EF4E095E1
:101F7000E7FB0C943011E92F0E94931158F3BA1724
:101F8000620773078407950720F079F4A6F50C948F
:101F9000B5110EF4E0950B2EBA2FA02D0B01B9014F
:101FA00090010C01CA01A0011124FF27591B99F0CF
:101FB000593F50F4503E68F11A16F040A22F232FDB
:101FC000342F4427585FF3CF469537952795A7952B
:101FD000F0405395C9F77EF41F16BA0B620B730BD2
:101FE000840BBAF09150A1F0FF0FBB1F661F771F43
:101FF000881FC2F70EC0BA0F621F731F841F48F4F8
:10200000879577956795B795F7959E3F08F0B0CF80
:102010009395880F08F09927EE0F97958795089567
:102020009F939F77EEE389379E0728F4E8E6F0E078
:102030000E9460110CC00E9410119058A2EA2AED73
:102040003FE049EC5FE30E94BB0F0E9482110F90BA
:1020500007FC905808950E943F100C9482110E9432
:102060007B1158F00E94741140F029F45F3F29F071
:102070000C94301151110C94B6110C9436110E942D
:10208000931168F39923B1F3552391F3951B550BE5
:10209000BB27AA2762177307840738F09F5F5F4F3B
:1020A000220F331F441FAA1FA9F335D00E2E3AF07A
:1020B000E0E832D091505040E695001CCAF72BD092
:1020C000FE2F29D0660F771F881FBB1F26173707E3
:1020D0004807AB07B0E809F0BB0B802DBF01FF2715
:1020E00093585F4F3AF09E3F510578F00C943011B1
:1020F0000C94B6115F3FE4F3983ED4F38695779540
:102100006795B795F7959F5FC9F7880F911D9695CD
:10211000879597F90895E1E0660F771F881FBB1F29
:10212000621773078407BA0720F0621B730B840BD6
:10213000BA0BEE1F88F7E09508950E94A4106894EA
:10214000B1110C94B61108950E949B1188F09F570D
:1021500098F0B92F9927B751B0F0E1F0660F771FCB
:10216000881F991F1AF0BA95C9F714C0B13091F0C1
:102170000E94B511B1E008950C94B511672F782F26
:102180008827B85F39F0B93FCCF386957795679586
:10219000B395D9F73EF490958095709561957F4FF2
:1021A0008F4F9F4F0895E89409C097FB3EF4909598
:1021B0008095709561957F4F8F4F9F4F9923A9F020
:1021C000F92F96E9BB279395F695879577956795AF
:1021D000B795F111F8CFFAF4BB0F11F460FF1BC0F3
:1021E0006F5F7F4F8F4F9F4F16C0882311F096E986
:1021F00011C0772321F09EE8872F762F05C0662334
:1022000071F096E8862F70E060E02AF09A95660FEC
:10221000771F881FDAF7880F9695879597F90895A5
:10222000DF93CF931F930F938B01EC01ECE7F0E06A
:102230000E9439110E9482119801AE018B01EC01BC
:1022400060E070E080E89FE30E94A30F0E943712D5
:102250009801AE010F911F91CF91DF910C94CF1196
:1022600097F99F6780E870E060E008959FEF80EC49
:102270000895DF93CF931F930F93FF92EF92DF9216
:102280007B018C01689406C0DA2EEF010E94CF1109
:10229000FE01E894A5912591359145915591A6F3BC
:1022A000EF010E94BB0FFE019701A801DA9469F7C4
:1022B000DF90EF90FF900F911F91CF91DF910895E4
:1022C0009F938F937F936F93FF93EF939B01AC0149
:1022D0000E94BC11EF91FF910E9439112F913F9103
:1022E0004F915F910C94BC1100240A9416161706A6
:1022F00018060906089500240A94121613061406F7
:1023000005060895092E0394000C11F4882352F059
:10231000BB0F40F4BF2B11F460FF04C06F5F7F4F11
:102320008F4F9F4F089557FD9058440F551F59F0F8
:102330005F3F71F04795880F97FB991F61F09F3FB2
:1023400079F087950895121613061406551FF2CFDB
:102350004695F1DF08C0161617061806991FF1CF2B
:1023600086957105610508940895E894BB27662752
:102370007727CB0197F908950E94CF110C94821111
:102380000E94741138F00E947B1120F0952311F007
:102390000C9430110C94361111240C94B6110E9437
:1023A000931170F3959FC1F3950F50E0551F629FF5
:1023B000F001729FBB27F00DB11D639FAA27F00D9E
:1023C000B11DAA1F649F6627B00DA11D661F829FC5
:1023D0002227B00DA11D621F739FB00DA11D621FAA
:1023E000839FA00D611D221F749F3327A00D611DC7
:1023F000231F849F600D211D822F762F6A2F1124A9
:102400009F5750409AF0F1F088234AF0EE0FFF1FDB
:10241000BB1F661F771F881F91505040A9F79E3F32
:10242000510580F00C9430110C94B6115F3FE4F329
:10243000983ED4F3869577956795B795F795E79588
:102440009F5FC1F7FE2B880F911D9695879597F991
:1024500008959F930E948E120F9007FCEE5F0C94DC
:10246000B71219F416F40C9436110C9477120E94DA
:102470009B11B8F39923C9F3B6F39F57550B87FF08
:102480000E9485120024A0E640EA900180585695EB
:10249000979528F4805C660F771F881F20F0261719
:1024A0003707480730F4621B730B840B202931294E
:1024B0004A2BA69517940794202531254A2758F7CB
:1024C000660F771F881F20F026173707480730F45C
:1024D000620B730B840B200D311D411DA09581F7FC
:1024E000B901842F9158880F9695879508959F3F3D
:1024F00031F0915020F4879577956795B795880FBF
:10250000911D9695879597F9089591505040660FC3
:10251000771F881FD2F708950C9436110E949B11E3
:10252000D8F3E894E0E0BB279F57F0F02AED3FE0B6
:1025300049EC06C0EE0FBB0F661F771F881F28F0FF
:10254000B23A62077307840728F0B25A620B730B22
:10255000840BE3959A9572F7803830F49A95BB0F07
:10256000661F771F881FD2F790480C947912EF935B
:10257000E0FF07C0A2EA2AED3FE049EC5FEB0E94D2
:10258000BB0F0E9482110F90039401FC9058E4EA63
:10259000F0E00C946011DB018F939F930E94301345
:1025A000BF91AF91A29F800D911DA39F900DB29FEF
:1025B000900D1124089597FB072E16F4009407D070
:1025C00077FD09D00E943B1307FC05D03EF490959F
:1025D00081959F4F0895709561957F4F0895A1E271
:1025E0001A2EAA1BBB1BFD010DC0AA1FBB1FEE1F8D
:1025F000FF1FA217B307E407F50720F0A21BB30BD8
:10260000E40BF50B661F771F881F991F1A9469F753
:1026100060957095809590959B01AC01BD01CF01AF
:102620000895052E97FB1EF400940E94281357FD71
:1026300007D00E94EF1207FC03D04EF40C9428132D
:1026400050954095309521953F4F4F4F5F4F0895DE
:1026500090958095709561957F4F8F4F9F4F08950E
:102660000E945513A59F900DB49F900DA49F800DBF
:10267000911D11240895AA1BBB1B51E107C0AA1F7D
:10268000BB1FA617B70710F0A61BB70B881F991F13
:102690005A95A9F780959095BC01CD010895EE0F4C
:1026A000FF1F0590F491E02D0994A29FB001B39F04
:1026B000C001A39F700D811D1124911DB29F700D4B
:1026C000811D1124911D089581E090E0F8940C94EF
:1026D000691310E0CFE8D0E004C0FE010E944F1360
:0C26E0002196C039D107C9F7F894FFCF4C
:1026EC000000000025015206BC007201ED00CB0079
:1026FC00DF0000000000CA029D02FA02E801950208
:10270C008102720200000000E9015206FA02E8019F
:10271C0039025102D0012070697463683A2000209C
:10272C00726F6C6C3A200041542B434D47463D313F
:10273C000D0A0041542B434D47533D223038363857
:10274C00363131363939220D0A0062616F20646FDF
:10275C006E672C20746F6120646F3A2068747470FB
:10276C00733A2F2F7777772E676F6F676C652E63B1
:10277C006F6D2F6D6170732F4031362E30373130C5
:10278C00312C3130382E3231393934312C31397ACF
:10279C0020001A004154443038363836313136393D
:0E27AC00393B0D0A0062616F646F6E670000BA
:00000001FF
