:100000000C947B010C94AC010C94AC010C94AC01ED
:100010000C94AC010C94AC010C94AC010C94AC01AC
:100020000C94AC010C94AC010C94AC010C94AC019C
:100030000C94AC010C949F040C94AC010C94AC0196
:100040000C94AC010C94AC010C94AC010C94AC017C
:100050000C94AC010C94AC010C94AC010C94F50321
:100060000C94AC010C9469040C943F040C94AC0106
:100070000C94AC010C94AC010C94AC010C94AC014C
:100080000C94AC010C94AC010C94AC010C94AC013C
:100090000C94AC010C94AC010C94AC010C94AC012C
:1000A0000C94AC010C94AC010C94AC010C94AC011C
:1000B0000C94AC010C94AC010C94AC010C94AC010C
:1000C0000C94AC010C94AC010C94AC010C94AC01FC
:1000D0000C94AC010C94AC010C94AC010C94AC01EC
:1000E0000C94AC010E021102000204020A02480242
:1000F000150219021F02230227022D0231023502C6
:1001000048023B023F024302D105D705DD05E90560
:10011000F505840601060A0613061F062B06370698
:1001200048065406840660066C0678060C944B0359
:100130000C940A020C9411020C940E020C948B067F
:100140000C94D7050C9401060C943B020C94E90521
:100150000C9413030C941F020C9435020C94D105DB
:100160000C9478060C9423020C9454060C944802C8
:100170000C94B4020C941F060C9404020C94F1022B
:100180000C9427020C942B060C9484060C94000209
:100190000C9431020C9413060C9448060C942D0216
:1001A0000C9443020C94E2020C9405030C94980303
:1001B0000C9415020C946C060C9460060C943F028F
:1001C0000C940A060C94DD050C9437060C94190265
:1001D0000C94F50500000A0B02090C0D0E0807032C
:1001E000040100000000000000000000000000000A
:1001F00000000000000000000000000000000000FF
:1002000012111000000000000000000000000000BB
:100210000000000000000000000000002100240099
:1002200027002A002D0030003300010100000401E6
:1002300007010A01000020002300260029002C00ED
:100240002F00320000010000030106010901000037
:100250002200250028002B002E003100340002016E
:100260000000050108010B01050505050705080843
:100270000808020202020A0A080804040404010130
:100280000101010101010303030303030303040745
:1002900007070C0C0C0C0C0C0C0C020202020606DC
:1002A0000606060606060B0B0B0B0B0B0B0B0102CF
:1002B0001020200808102040102040800201020178
:1002C0000804020101020408102040808040201030
:1002D0000804020180040201804020100804020189
:1002E00008040201010204081020408001020408F1
:1002F000102040808B0611241FBECFEFD1E2DEBF5D
:10030000CDBF00E00CBF12E0A0E0B2E0EAE7F0E110
:1003100000E00BBF02C007900D92A231B107D9F7E0
:1003200023E0A2E1B2E001C01D92A430B207E1F7E0
:1003300011E0CBE7D1E000E006C021970109802F52
:10034000FE010E942E08CA37D10780E00807A9F7EE
:100350000E94CF060C943B080C940000DC0170E076
:10036000FB01E255FD4FE4911496EC93149750E095
:10037000FA01E255FD4FE4911596EC9315976859F3
:100380007D4FFB018491E82FF0E0EE0FFF1FE25B51
:10039000FD4F8591949117969C938E931697FA0131
:1003A000E859FD4FE491F0E0EE0FFF1FEC5CFD4FCC
:1003B0008591949119969C938E931897FB01649163
:1003C000E62FF0E0EE0FFF1FE65EFD4F8591949162
:1003D0001B969C938E931A9781EC9CE21D969C939E
:1003E0008E931C97089590E0FC013197E231F1055E
:1003F00008F04EC08827EE58FF4F8F4F0C942E0800
:10040000809180008F7703C0809180008F7D8093E2
:100410008000089580918000877FF9CF84B58F7721
:1004200002C084B58F7D84BD08958091B0008F7720
:1004300003C08091B0008F7D8093B00008958091BB
:1004400090008F7707C0809190008F7D03C08091CE
:100450009000877F8093900008958091A0008F770F
:1004600007C08091A0008F7D03C08091A000877F8E
:100470008093A0000895809120018F7707C080911C
:1004800020018F7D03C080912001877F8093200110
:1004900008951F93CF93DF93282F30E0F901EC529A
:1004A000FE4F8491F901E255FD4FD491F901E859CD
:1004B000FD4FC491CC23C1F0162F81110E94F3018E
:1004C000EC2FF0E0EE0FFF1FE25BFD4FA591B49122
:1004D0009FB7F894111104C08C91D095D82302C015
:1004E000EC91DE2BDC939FBFDF91CF911F9108959C
:1004F000CF93DF9390E0FC01E255FD4F2491FC0186
:10050000E859FD4F8491882361F190E0880F991F8D
:10051000FC01E65EFD4FC591D491FC01E25BFD4F0D
:10052000A591B491611109C09FB7F8948881209575
:1005300082238883EC912E230BC0623061F49FB735
:10054000F8948881322F309583238883EC912E2B69
:100550002C939FBF06C08FB7F894E8812E2B288379
:100560008FBFDF91CF910895CF92DF92EF92FF92EC
:100570000F931F93CF93DF936C017A018B01C0E03F
:10058000D0E0CE15DF0581F0D8016D918D01D60147
:10059000ED91FC910190F081E02DC6011995892B18
:1005A00011F02196EECF7E01C701DF91CF911F910F
:1005B0000F91FF90EF90DF90CF900895089580E025
:1005C00090E00895FC01538D448D252F30E0842F59
:1005D00090E0821B930B541710F0CF96089501976B
:1005E0000895FC01918D828D981761F0828DDF0155
:1005F000A80FB11D5D968C91928D9F5F9F73928F16
:1006000090E008958FEF9FEF0895FC01918D828D0A
:10061000981731F0828DE80FF11D858D90E00895D7
:100620008FEF9FEF0895FC01918D228D892F90E02F
:10063000805C9F4F821B91098F73992708958FE1EA
:1006400092E00E94130321E0892B09F420E0822F1D
:100650000895FC01848DDF01A80FB11DA35ABF4F7F
:100660002C91848D90E001968F739927848FA689B1
:10067000B7892C93A089B1898C91837080648C9305
:10068000938D848D981306C00288F389E02D8081B4
:100690008F7D80830895EF92FF920F931F93CF93E6
:1006A000DF93EC0181E0888F9B8D8C8D981305C0C2
:1006B000E889F989808185FD26C0F62E0B8D10E032
:1006C0000F5F1F4F0F731127E02E8C8DE8120CC0A7
:1006D0000FB607FCFACFE889F989808185FFF5CF4D
:1006E000CE010E942903F1CF8B8DFE01E80FF11D91
:1006F000E35AFF4FF0829FB7F8940B8FEA89FB898A
:10070000808180620AC09FB7F894EE89FF89608378
:10071000E889F98980818370806480839FBF81E04C
:1007200090E0DF91CF911F910F91FF90EF9008958E
:10073000CF93DF93EC01888D8823C9F0EA89FB8988
:10074000808185FD05C0A889B9898C9186FD0FC07F
:100750000FB607FCF5CF808185FFF2CFA889B98954
:100760008C9185FFEDCFCE010E942903E7CFDF9169
:10077000CF91089580E090E0892B21F00E941F0323
:10078000811125C080E090E0892B41F080E090E06D
:10079000892B21F00E94000081111CC080E090E0B4
:1007A000892B41F080E090E0892B21F00E9400002D
:1007B000811113C080E090E0892BA1F080E090E0EF
:1007C000892B81F00E94000081110AC008950E94C7
:1007D0000000D8CF0E940000E1CF0E940000EACFC5
:1007E0000C94000008950E9436081F920F920FB6D5
:1007F0000F9211242F933F938F939F93AF93BF93A7
:100800008091170290911802A0911902B0911A02DA
:100810003091160223E0230F2D3720F40196A11DFD
:10082000B11D05C026E8230F0296A11DB11D20931E
:1008300016028093170290931802A0931902B093A6
:100840001A0280911B0290911C02A0911D02B0918E
:100850001E020196A11DB11D80931B0290931C02E4
:10086000A0931D02B0931E02BF91AF919F918F91F3
:100870003F912F910F900FBE0F901F9018951F92D0
:100880000F920FB60F9211240BB60F922F933F9336
:100890004F935F936F937F938F939F93AF93BF9388
:1008A000EF93FF938FE192E00E942903FF91EF9174
:1008B000BF91AF919F918F917F916F915F914F9178
:1008C0003F912F910F900BBE0F900FBE0F901F9076
:1008D00018951F920F920FB60F9211240BB60F921C
:1008E0002F938F939F93EF93FF93E0912F02F091BB
:1008F00030028081E0913502F091360282FD12C013
:100900009081809138028F5F8F7320913902821716
:1009100051F0E0913802F0E0E15EFD4F958F809359
:10092000380201C08081FF91EF919F918F912F91AB
:100930000F900BBE0F900FBE0F901F9018951F9237
:100940000F920FB60F9211240BB60F922F933F9375
:100950004F935F936F937F938F939F93AF93BF93C7
:10096000EF93FF93E0E0F0E01995FF91EF91BF91D5
:10097000AF919F918F917F916F915F914F913F9137
:100980002F910F900BBE0F900FBE0F901F901895D8
:100990003FB7F89480911B0290911C02A0911D0218
:1009A000B0911E0226B5A89B05C02F3F19F00196F5
:1009B000A11DB11D3FBFBA2FA92F982F8827820FE5
:1009C000911DA11DB11DBC01CD0142E0660F771F35
:1009D000881F991F4A95D1F708958F929F92AF92E1
:1009E000BF92CF92DF92EF92FF920E94C8044B0118
:1009F0005C0188EEC82E83E0D82EE12CF12C0E94F9
:100A0000C804DC01CB0188199909AA09BB09883EF1
:100A10009340A105B10598F321E0C21AD108E1087D
:100A2000F10888EE880E83E0981EA11CB11CC11449
:100A3000D104E104F10419F7FF90EF90DF90CF901B
:100A4000BF90AF909F908F9008950F931F93CF9377
:100A5000DF93FC01A285B3859C918481892B8C93C3
:100A6000A681B7819C918481809589238C938BE0AA
:100A700090E00197F1F7A681B7819C918481892B41
:100A80008C9383E290E00197F1F7A681B7819C9166
:100A90008481809589238C93A285B3859C918481E0
:100AA000809589238C93A085B1859C91858189232C
:100AB00009F058C0EF010E94C8042C853D858901CA
:100AC00020E030E00855194E2F4F3F4FDC01CB019D
:100AD000800F911FA21FB31F8E879F87A88BB98B92
:100AE000E885F98590818D81892361F40E94C8048D
:100AF0000E851F85288939890617170728073907A2
:100B000078F730C00E94C8042C853D85DC01CB01FC
:100B1000820F931FA11DB11D8E879F87A88BB98B54
:100B2000E885F98590818D81892361F00E94C80450
:100B30000E851F8528893989061717072807390761
:100B400078F710C00E94C8042C853D85A901455046
:100B500051092E853F85FA01E21BF30BCF01860F69
:100B6000971F02C080E090E0DF91CF911F910F911D
:100B70000895CF93C82F61E00E947802EC2FF0E037
:100B8000EC52FE4FE4918E2F90E0FC013197E23160
:100B9000F10508F0B9C08827EC57FF4F8F4F0C9430
:100BA0002E0884B5806884BD88EC87BDB2C084B54A
:100BB000806284BD88EC88BDACC080918000806874
:100BC0008093800088EC90E0909389008093880067
:100BD000A0C08091800080628093800088EC90E0CB
:100BE00090938B0080938A0094C0809180008860ED
:100BF0008093800088EC90E090938D0080938C002F
:100C000088C08091B00080688093B00088EC8093A9
:100C1000B3007FC08091B00080628093B00088EC08
:100C20008093B40076C0809190008068809390009B
:100C300088EC90E090939900809398006AC080912E
:100C4000900080628093900088EC90E090939B00ED
:100C500080939A005EC0809190008860809390009D
:100C600088EC90E090939D0080939C0052C080910E
:100C7000A00080688093A0008091A0008F7B80936B
:100C8000A00088EC90E09093A9008093A80041C058
:100C90008091A00080628093A00088EC90E0909307
:100CA000AB008093AA0035C08091A000886080933B
:100CB000A00088EC90E09093AD008093AC0029C038
:100CC0008091200180688093200188EC90E09093CF
:100CD0002901809328011DC08091200180628093AA
:100CE000200188EC90E090932B0180932A0111C0A1
:100CF0008091200188608093200188EC90E090939F
:100D00002D0180932C0105C061E08C2FCF910C94B4
:100D10004902CF910895EFE1F2E01382128288EE4A
:100D200093E0A0E0B0E084839583A683B78384E05A
:100D300092E09183808385EC90E09587848784ECB2
:100D400090E09787868780EC90E0918B808B81EC98
:100D500090E0938B828B82EC90E0958B848B86EC79
:100D600090E0978B868B118E128E138E148E42E03C
:100D700063E082EF92E00E94AE0144E065E080EE25
:100D800092E00E94AE0146E067E08EEC92E00E94A5
:100D9000AE014BE06CE08CEB92E00C94AE017894E9
:100DA00084B5826084BD84B5816084BD85B5826070
:100DB00085BD85B5816085BD80916E008160809321
:100DC0006E0010928100809181008260809381008A
:100DD000809181008160809381008091800081609A
:100DE000809380008091B10084608093B1008091F5
:100DF000B00081608093B000809191008260809308
:100E00009100809191008160809391008091900089
:100E10008160809390008091A10082608093A10006
:100E20008091A10081608093A1008091A0008160E9
:100E30008093A000809121018260809321018091A4
:100E40002101816080932101809120018160809344
:100E5000200180917A00846080937A0080917A00EA
:100E6000826080937A0080917A00816080937A001A
:100E700080917A00806880937A001092C100E0919E
:100E80002F02F091300282E08083E0912B02F091FA
:100E90002C021082E0912D02F0912E028FEC8083C3
:100EA00010923702E0913302F091340286E08083A1
:100EB000E0913102F0913202808180618083E09183
:100EC0003102F0913202808188608083E0913102AA
:100ED000F0913202808180688083E0913102F0914C
:100EE000320280818F7D808361E08DE00E947802F4
:100EF00060E088E30E9478029CE0292E92E0392E7F
:100F000026EE822E22E0922E30EAA32E32E0B32E7D
:100F100049E3442E512C612C712CF1018491F40190
:100F2000C491F501D491DD2399F081110E94F30160
:100F3000ED2FF0E0EE0FFF1FEC5CFD4FA591B4919B
:100F40008C91C82329F061E08DE00E944902FBCF1B
:100F500082EF92E00E9425056C0180EE92E00E94F3
:100F60002505BC0180E090E0A30192010E940C08DD
:100F7000E9018EEC92E00E9425058C018CEB92E059
:100F80000E9425057C01B60180E090E0A30192015A
:100F90000E940C08232BD1F089E0CD2B91F00E9408
:100FA000B90560E08AE00E9449020E94ED048AE0EF
:100FB0000E94B90560E089E00E9449020E94ED04A8
:100FC00028C00E94B90560E08AE021C0CD2B39F02D
:100FD0008AE00E94B90560E089E00E944902B801F8
:100FE00080E090E0A30192010E940C08232B49F4B9
:100FF000B70180E090E0A30192010E940C08232B2E
:1010000041F064E68AE00E94490264E689E00E94B9
:1010100049020E94BA0381CFA1E21A2EAA1BBB1B70
:10102000FD010DC0AA1FBB1FEE1FFF1FA217B307B4
:10103000E407F50720F0A21BB30BE40BF50B661FCA
:10104000771F881F991F1A9469F76095709580958E
:1010500090959B01AC01BD01CF010895EE0FFF1FDC
:10106000881F8BBF0790F691E02D199481E090E0E6
:0A107000F8940C943B08F894FFCFAD
:10107A00000000004B03B402E20298031303F102DA
:02108A0005035C
:00000001FF
