:100000000C9456010C9487010C9487010C94870181
:100010000C9487010C9487010C9487010C94870140
:100020000C9487010C9416040C9416040C9416047A
:100030000C9487010C9487010C9487010C94870120
:100040000C9487010C9487010C9487010C94870110
:100050000C9487010C9487010C9487010C946C0319
:100060000C9487010C94E0030C94B6030C94870164
:100070000C9487010C9487010C9487010C948701E0
:100080000C9487010C9487010C9487010C948701D0
:100090000C9487010C9487010C9487010C948701C0
:1000A0000C9487010C9487010C9487010C948701B0
:1000B0000C9487010C9487010C9487010C948701A0
:1000C0000C9487010C9487010C9487010C94870190
:1000D0000C9487010C9487010C9487010C94870180
:1000E0000C948701C304C604B504B904BD04FD041F
:1000F000CA04CE04D404D804DC04E204E604EA040E
:10010000FD04F004F404F8040C94F8040C94C20107
:100110000C9489010C94F0040C94C6040C94DC0239
:100120000C94C4020C94FD040C94EA040C94C304D3
:100130000C94CE040C94D4040C94D8040C94CA04EB
:100140000C94DD020C94E2040C942D030C94D60163
:100150000C9445030C941C020C94E4010C9467036A
:100160000C94BD040C9469020C94B5040C94F40432
:100170000C94B9040C94B3010C94E6040C94DC04C4
:100180000C9412050C94860700000A0B02090C0D52
:100190000E0807030401000000000000000000003A
:1001A000000000000000000000000000000000004F
:1001B000000000001211100000000000000000000C
:1001C000000000000000000000000000000000002F
:1001D00020002300260029002C002F0032000001FF
:1001E000000003010601090100002100240027008E
:1001F0002A002D0030003300010100000401070136
:100200000A0100002200250028002B002E003100EA
:10021000340002010000050108010B010505050578
:10022000070508080808020202020A0A080804046E
:10023000040401010101010101010303030303039C
:100240000303040707070C0C0C0C0C0C0C0C02022B
:10025000020206060606060606060B0B0B0B0B0B28
:100260000B0B0102102020080810204010204080B5
:10027000020102010804020101020408102040806A
:1002800080402010080402018004020180402010F8
:100290000804020108040201010204081020408041
:1002A00001020408102040801205860711241FBE99
:1002B000CFEFD1E2DEBFCDBF00E00CBF12E0A0E087
:1002C000B2E0E2EDFFE000E00BBF02C007900D924C
:1002D000A432B107D9F723E0A4E2B2E001C01D9235
:1002E000AD32B207E1F711E0C5E5D1E000E006C0AC
:1002F00021970109802FFE010E94B607C435D1075E
:1003000080E00807A9F70E94F4050C94D7070C9425
:100310000000CF92DF92EF92FF920F931F93CF9343
:10032000DF936C017A018B01C0E0D0E0CE15DF05D0
:1003300081F0D8016D918D01D601ED91FC91019074
:10034000F081E02DC6011995892B11F02196EECF91
:100350007E01C701DF91CF911F910F91FF90EF9028
:10036000DF90CF900895FC01538D448D252F30E010
:10037000842F90E0821B930B541710F0CF960895B2
:1003800001970895FC01918D828D981761F0828DFF
:10039000DF01A80FB11D5D968C91928D9F5F9F73B9
:1003A000928F90E008958FEF9FEF0895FC01918D5B
:1003B000828D981731F0828DE80FF11D858D90E0C8
:1003C00008958FEF9FEF0895FC01918D228D892F65
:1003D00090E0805C9F4F821B91098F73992708954D
:1003E00081E792E00E94E40121E0892B09F420E0FA
:1003F000822F0895FC01848DDF01A80FB11DA35A3F
:10040000BF4F2C91848D90E001968F739927848F34
:10041000A689B7892C93A089B1898C918370806457
:100420008C93938D848D981306C00288F389E02DF8
:1004300080818F7D80830895EF92FF920F931F93A9
:10044000CF93DF93EC0181E0888F9B8D8C8D981387
:1004500005C0E889F989808185FD26C0F62E0B8DBF
:1004600010E00F5F1F4F0F731127E02E8C8DE812E5
:100470000CC00FB607FCFACFE889F989808185FFA7
:10048000F5CFCE010E94FA01F1CF8B8DFE01E80F6E
:10049000F11DE35AFF4FF0829FB7F8940B8FEA8962
:1004A000FB89808180620AC09FB7F894EE89FF893A
:1004B0006083E889F98980818370806480839FBF2D
:1004C00081E090E0DF91CF911F910F91FF90EF902D
:1004D0000895CF93DF93EC01888D8823C9F0EA89D2
:1004E000FB89808185FD05C0A889B9898C9186FD2D
:1004F0000FC00FB607FCF5CF808185FFF2CFA8892A
:10050000B9898C9185FFEDCFCE010E94FA01E7CF2A
:10051000DF91CF91089580E090E0892B21F00E9437
:10052000F001811125C080E090E0892B41F080E04E
:1005300090E0892B21F00E94000081111CC080E016
:1005400090E0892B41F080E090E0892B21F00E941F
:100550000000811113C080E090E0892BA1F080E0C1
:1005600090E0892B81F00E94000081110AC008955B
:100570000E940000D8CF0E940000E1CF0E9400003E
:10058000EACF0C9400000895209166023091670232
:100590002817390771F490916402809165029817C9
:1005A00041F0E0916402F0E0EC5DFD4F808190E06D
:1005B00008958FEF9FEF089508951F93CF93DF93D2
:1005C000DC015C968D919C915D97009739F421E058
:1005D00030E013963C932E9312973BC05196ED91C9
:1005E000FC91529750962C915097322F30951FB70F
:1005F0005E964C915E97742F727041FD6095F894F1
:100600004081772311F0422B01C043234083EC014A
:100610002197F1F748E0508160FF02C0522B01C0E2
:1006200053235083EC012197F1F76695415099F7D8
:100630008081772319F08323808302C0282B2083B5
:100640001FBF5C968D919C915D970197F1F781E0BA
:1006500090E0DF91CF911F91089520916602309133
:1006600067022817390771F48091650220916402AE
:1006700090E0805C9F4F821B910960E470E00E94D3
:10068000A207089580E090E00895209166023091DD
:10069000670228173907B9F49091640280916502C6
:1006A000981789F0E0916402F0E0EC5DFD4F8081E5
:1006B0002091640230E02F5F3F4F2F733327209348
:1006C000640290E008958FEF9FEF0895089580E011
:1006D00090E008950E94D2071F920F920FB60F92DA
:1006E00011242F933F938F939F93AF93BF93809148
:1006F0006D0290916E02A0916F02B09170023091E4
:100700006C0223E0230F2D3720F40196A11DB11DAB
:1007100005C026E8230F0296A11DB11D20936C028F
:1007200080936D0290936E02A0936F02B09370025B
:100730008091680290916902A0916A02B0916B0267
:100740000196A11DB11D8093680290936902A09348
:100750006A02B0936B02BF91AF919F918F913F91CD
:100760002F910F900FBE0F901F9018951F920F9210
:100770000FB60F9211240BB60F922F933F934F9306
:100780005F936F937F938F939F93AF93BF93EF93F9
:10079000FF9381E792E00E94FA01FF91EF91BF91F0
:1007A000AF919F918F917F916F915F914F913F9109
:1007B0002F910F900BBE0F900FBE0F901F901895AA
:1007C0001F920F920FB60F9211240BB60F922F9318
:1007D0008F939F93EF93FF93E0918102F0918202B8
:1007E0008081E0918702F091880282FD12C09081A1
:1007F00080918A028F5F8F7320918B02821751F054
:10080000E0918A02F0E0EF58FD4F958F80938A02C5
:1008100001C08081FF91EF919F918F912F910F9057
:100820000BBE0F900FBE0F901F9018951F920F9246
:100830000FB60F9211240BB60F922F933F934F9345
:100840005F936F937F938F939F93AF93BF93EF9338
:10085000FF93E0916602F0916702309709F451C06E
:10086000968DA685B785858591FF04C09C918923C7
:1008700029F447C09C91892309F043C0A389B48916
:100880009C918589809589238C9386899789019786
:10089000F1F7608D718DA685B785558538E020E02C
:1008A000CB010197F1F7822F90E095958795282F3E
:1008B0004C91452309F02068315091F7868D81FDD8
:1008C00020958091650290E001968F739927309171
:1008D0006402381749F0A0916502B0E0AC5DBD4FED
:1008E0002C938093650203C0868D8160868F828DF4
:1008F000938D0197F1F7A389B4899C918589892B00
:100900008C93FF91EF91BF91AF919F918F917F91C8
:100910006F915F914F913F912F910F900BBE0F9070
:100920000FBE0F901F901895362F90E0FC01E857EE
:10093000FE4F4491FC01EE59FD4F2491FC01E45E11
:10094000FD4F9491992309F46CC0442309F455C0D8
:1009500050E0FA013197E231F10508F04EC08827E6
:10096000EE58FF4F8F4F0C94B607809180008F7721
:1009700007C0809180008F7D03C080918000877FB9
:10098000809380003AC084B58F7702C084B58F7D94
:1009900084BD33C08091B0008F7703C08091B000D8
:1009A0008F7D8093B00029C0809190008F7707C021
:1009B000809190008F7D03C080919000877F80930D
:1009C00090001BC08091A0008F7707C08091A0008D
:1009D0008F7D03C08091A000877F8093A0000DC011
:1009E000809120018F7707C0809120018F7D03C007
:1009F00080912001877F80932001E92FF0E0EE0FA6
:100A0000FF1FEE5FFD4FA591B4919FB7F894311190
:100A100004C08C912095282302C0EC912E2B2C939E
:100A20009FBF0895CF93DF931092740210927302C8
:100A300088EE93E0A0E0B0E0809375029093760298
:100A4000A0937702B093780224E032E030937202F0
:100A50002093710225EC30E030937E0220937D02DA
:100A600024EC30E03093800220937F0220EC30E0D1
:100A7000309382022093810221EC30E03093840293
:100A80002093830222EC30E030938602209385028B
:100A900026EC30E0309388022093870210928A027D
:100AA00010928B0210928C0210928D021092110300
:100AB000109210038093120390931303A0931403D6
:100AC000B093150386E192E090930F0380930E0399
:100AD00010922503109224031092270310922603EC
:100AE000109229031092280310922B0310922A03CC
:100AF00060912C036E7F6D7F60932C03669561700F
:100B000081E068278BE00E949404EDE6F2E02491F6
:100B1000E7E2F2E08491882399F090E0880F991F32
:100B2000FC01E851FE4FA591B491FC01EE5FFD4F31
:100B3000859194918FB7F894EC91E22BEC938FBF51
:100B4000EDE6F2E0E491E0931E03E7E2F2E0E491E7
:100B5000F0E0EE0FFF1FEE5FFD4F859194919093B3
:100B6000200380931F03ECE6F2E02491E6E2F2E03A
:100B700084918823C1F090E0880F991FFC01E8510F
:100B8000FE4FC591D491FC01EE5FFD4FA591B4914C
:100B90009FB7F8948881E22FE0958E2388838C910B
:100BA000E823EC939FBF80912C0381FD04C061E09A
:100BB0008AE00E9494048AE080931A03ECE6F2E053
:100BC000E491E0931B03E6E2F2E0E491F0E0EE0F43
:100BD000FF1FE253FE4F8591949190931D038093E4
:100BE0001C03DF91CF910895789484B5826084BD11
:100BF00084B5816084BD85B5826085BD85B5816021
:100C000085BD80916E00816080936E00109281009E
:100C10008091810082608093810080918100816059
:100C2000809381008091800081608093800080911A
:100C3000B10084608093B1008091B00081608093A6
:100C4000B00080919100826080939100809191002A
:100C500081608093910080919000816080939000EA
:100C60008091A10082608093A1008091A1008160A9
:100C70008093A1008091A00081608093A00080916A
:100C80002101826080932101809121018160809304
:100C900021018091200181608093200180917A0060
:100CA000846080937A0080917A00826080937A00D9
:100CB00080917A00816080937A0080917A008068C8
:100CC00080937A001092C100E0918102F09182023B
:100CD00082E08083E0917D02F0917E021082E091BB
:100CE0007F02F09180028FEC808310928902E09164
:100CF0008502F091860286E08083E0918302F09184
:100D00008402808180618083E0918302F09184027B
:100D1000808188608083E0918302F09184028081E9
:100D200080688083E0918302F091840280818F7DCE
:100D300080831092290310922803109227031092A7
:100D4000260310922503109224038DE991E09093DD
:100D50002B0380932A0380911A0396EF980F943007
:100D600048F02EEC280F243028F022EC280F2830F1
:100D700008F072C02DEB30E030932503209324035C
:100D80002BE931E030932703209326032CE231E056
:100D90003093290320932803943060F02EEC280F21
:100DA000243040F022EC280F283008F0A7C0A8E635
:100DB000B0E0A6C0A8E6B0E0E8E6F0E0208194301C
:100DC00048F09EEC980F943028F08E53883010F441
:100DD00084E001C081E0822B8C9380911A0396EF0E
:100DE000980F943058F02EEC280F243038F022EC75
:100DF000280F283030F020E030E005C02BE630E04E
:100E000002C02DE630E0309322032093210394307A
:100E100010F49AEF0BC0823381F0833381F0843376
:100E200081F092EC980F983070F492EC980F81E07A
:100E300001C0880F9A95EAF707C088E005C084E0F2
:100E400003C082E001C081E08093230380912A03E4
:100E500090912B030197F1F780912803909129033A
:100E6000892B49F1E0916602F091670283E0EE3050
:100E7000F80709F1309739F0A389B4899C918589E5
:100E8000809589238C9380912C038E7F80932C03F3
:100E900010926502109264028EE093E090936702D4
:100EA00080936602E0912103F0912203908180916A
:100EB0002303892B80838EE093E00E942D03892BEE
:100EC00051F08EE093E00E944503682F81E792E0A5
:100ED0000E941C02F0CF81E792E00E94E401892B7E
:100EE00051F081E792E00E94C201682F8EE093E00A
:100EF0000E94DD02F0CF0E948B02DDCFA0E0B0E0C7
:100F0000283008F459CFE0E0F0E058CF86E192E0D5
:100F100090930F0380930E03809166029091670275
:100F20008E50934071F4E0912103F091220390815F
:100F30008091230380958923808310926702109209
:100F40006602089597FB072E16F4009407D077FDEC
:100F500009D00E94BE0707FC05D03EF4909581950C
:100F60009F4F0895709561957F4F0895EE0FFF1F75
:100F7000881F8BBF0790F691E02D1994AA1BBB1B0D
:100F800051E107C0AA1FBB1FA617B70710F0A61B89
:100F9000B70B881F991F5A95A9F780959095BC01AA
:100FA000CD01089581E090E0F8940C94D70711E00A
:100FB000C5E5D1E000E006C0802FFE010E94B60723
:100FC0002196011DC635D10780E00807A9F7F894DE
:020FD000FFCF51
:100FD200000000001C028901B3016902E401C201A0
:100FE200D60100000000DD0289016703DC022D0347
:040FF2004503C402ED
:00000001FF
