:100000000C9463000C948B000C948B000C945403A0
:100010000C9454030C9454030C948B000C948B009C
:100020000C948B000C948B000C948B000C948B0024
:100030000C948B000C948B000C948B000C948B0014
:100040000C94B2020C948B000C9422030C94FC02CE
:100050000C948B000C948B000C948B000C948B00F4
:100060000C948B000C948B0000000008000201002F
:100070000003040700000000000000000000000072
:1000800023002600290000000000240027002A0089
:1000900000000000250028002B00040404040404D0
:1000A0000404020202020202030303030303010227
:1000B00004081020408001020408102001020408F6
:1000C00010201B04680611241FBECFEFD8E0DEBF4E
:1000D000CDBF11E0A0E0B1E0E8E8FDE002C005908E
:1000E0000D92A436B107D9F722E0A4E6B1E001C031
:1000F0001D92AD36B207E1F710E0C2E6D0E004C0D1
:100100002197FE010E94AC06C136D107C9F70E94B3
:10011000FD040C94B7060C9400003FB7F89480914E
:10012000AD019091AE01A091AF01B091B00126B5A3
:10013000A89B05C02F3F19F00196A11DB11D3FBF1F
:10014000BA2FA92F982F8827820F911DA11DB11DAD
:10015000BC01CD0142E0660F771F881F991F4A95A9
:10016000D1F708958F929F92AF92BF92CF92DF9274
:10017000EF92FF926B017C010E948D004B015C01AC
:10018000C114D104E104F104F1F00E948D00DC01FE
:10019000CB0188199909AA09BB09883E9340A1059A
:1001A000B10570F321E0C21AD108E108F10888EE28
:1001B000880E83E0981EA11CB11CC114D104E10477
:1001C000F10419F7DDCFFF90EF90DF90CF90BF9053
:1001D000AF909F908F900895CF92DF92EF92FF9211
:1001E0000F931F93CF93DF936C017A018B01C0E0D3
:1001F000D0E0CE15DF0581F0D8016D918D01D601DB
:10020000ED91FC910190F081E02DC6010995892BBB
:1002100011F02196EECF7E01C701DF91CF911F91A2
:100220000F91FF90EF90DF90CF900895FC01538DD8
:10023000448D252F30E0842F90E0821B930B5417C0
:1002400010F0CF96089501970895FC01918D828D4D
:10025000981761F0828DDF01A80FB11D5D968C911A
:10026000928D9F5F9F73928F90E008958FEF9FEF25
:100270000895FC01918D828D981731F0828DE80FE1
:10028000F11D858D90E008958FEF9FEF0895FC019B
:10029000918D228D892F90E0805C9F4F821B910968
:1002A0008F739927089581EB91E00E94470121E027
:1002B000892B09F420E0822F0895FC01848DDF0151
:1002C000A80FB11DA35ABF4F2C91848D90E00196C9
:1002D0008F739927848FA689B7892C93A089B189B8
:1002E0008C91837080648C93938D848D981306C059
:1002F0000288F389E02D80818F7D80830895EF92BD
:10030000FF920F931F93CF93DF93EC0181E0888FCF
:100310009B8D8C8D981305C0E889F989808185FDB6
:1003200026C0F62E0B8D10E00F5F1F4F0F731127A5
:10033000E02E8C8DE8120CC00FB607FCFACFE889CE
:10034000F989808185FFF5CFCE010E945D01F1CF53
:100350008B8DFE01E80FF11DE35AFF4FF0829FB72E
:10036000F8940B8FEA89FB89808180620AC09FB76D
:10037000F894EE89FF896083E889F9898081837028
:10038000806480839FBF81E090E0DF91CF911F91D7
:100390000F91FF90EF900895CF93DF93EC01888D3C
:1003A0008823C9F0EA89FB89808185FD05C0A88979
:1003B000B9898C9186FD0FC00FB607FCF5CF8081FF
:1003C00085FFF2CFA889B9898C9185FFEDCFCE0149
:1003D0000E945D01E7CFDF91CF91089580E090E02A
:1003E000892B29F00E94530181110C94000008957B
:1003F0002091A6013091A7012817390771F4909137
:10040000A4018091A501981741F0E091A401F0E0CA
:10041000EC59FE4F808190E008958FEF9FEF089593
:1004200008951F93CF93DF93DC015C968D919C918F
:100430005D97009739F421E030E013963C932E93BA
:1004400012973BC05196ED91FC91529750962C918A
:100450005097322F30951FB75E964C915E97742F50
:10046000727041FD6095F8944081772311F0422B22
:1004700001C043234083EC012197F1F748E050810C
:1004800060FF02C0522B01C053235083EC0121971F
:10049000F1F76695415099F78081772319F083230E
:1004A000808302C0282B20831FBF5C968D919C9176
:1004B0005D970197F1F781E090E0DF91CF911F9177
:1004C00008952091A6013091A7012817390771F4EA
:1004D0008091A5012091A40190E0805C9F4F821B38
:1004E000910960E470E00E948406089580E090E045
:1004F00008952091A6013091A70128173907B9F472
:100500009091A4018091A501981789F0E091A40130
:10051000F0E0EC59FE4F80812091A40130E02F5F84
:100520003F4F2F7333272093A40190E008958FEF5E
:100530009FEF0895089580E090E00895009769F096
:10054000FC0101900020E9F73197AF01481B590BDE
:10055000BC018EE492E00C94EC0080E090E0089501
:100560000E94B2061F920F920FB60F9211242F9382
:100570003F938F939F93AF93BF938091A9019091E5
:10058000AA01A091AB01B091AC013091A80123E088
:10059000230F2D3720F40196A11DB11D05C026E8BB
:1005A000230F0296A11DB11D2093A8018093A901DC
:1005B0009093AA01A093AB01B093AC018091AD01DF
:1005C0009091AE01A091AF01B091B0010196A11D33
:1005D000B11D8093AD019093AE01A093AF01B09394
:1005E000B001BF91AF919F918F913F912F910F904B
:1005F0000FBE0F901F9018951F920F920FB60F927B
:1006000011242F933F934F935F936F937F938F9317
:100610009F93AF93BF93EF93FF9381EB91E00E9481
:100620005D01FF91EF91BF91AF919F918F917F916C
:100630006F915F914F913F912F910F900FBE0F904F
:100640001F9018951F920F920FB60F9211242F939F
:100650008F939F93EF93FF93E091C101F091C201BB
:100660008081E091C701F091C80182FD12C09081A4
:100670008091CA018F5F8F732091CB01821751F057
:10068000E091CA01F0E0EF54FE4F958F8093CA01CC
:1006900001C08081FF91EF919F918F912F910F90D9
:1006A0000FBE0F901F9018951F920F920FB60F92CA
:1006B00011242F933F934F935F936F937F938F9367
:1006C0009F93AF93BF93EF93FF93E091A601F091B7
:1006D000A701309709F451C0968DA685B785858509
:1006E00091FF04C09C91892329F447C09C918923E0
:1006F00009F043C0A389B4899C9185898095892399
:100700008C93868997890197F1F7608D718DA68505
:10071000B785558538E020E0CB010197F1F7822FAE
:1007200090E095958795282F4C91452309F02068F6
:10073000315091F7868D81FD20958091A50190E043
:1007400001968F7399273091A401381749F0A09131
:10075000A501B0E0AC59BE4F2C938093A50103C016
:10076000868D8160868F828D938D0197F1F7A389A5
:10077000B4899C918589892B8C93FF91EF91BF91CE
:10078000AF919F918F917F916F915F914F913F9129
:100790002F910F900FBE0F901F90189590E0FC01C5
:1007A000E859FF4F2491FC01E255FF4F3491FC01C1
:1007B000E656FF4FE491EE2309F43CC0222339F1C1
:1007C000233091F038F42130A9F0223001F584B5BE
:1007D0008F7D12C0273091F02830A1F02430B9F479
:1007E000809180008F7D03C0809180008F778093FF
:1007F00080000DC084B58F7784BD09C08091B000A2
:100800008F7703C08091B0008F7D8093B000F0E0BF
:10081000EE0FFF1FE057FF4FA591B4919FB7F894DB
:10082000611104C08C913095382302C0EC913E2BAD
:100830003C939FBF0895CF93DF931092B401109221
:10084000B30188EE93E0A0E0B0E08093B50190930F
:10085000B601A093B701B093B80124E031E0309322
:10086000B2012093B10125EC30E03093BE0120931A
:10087000BD0124EC30E03093C0012093BF0120EC97
:1008800030E03093C2012093C10121EC30E030937D
:10089000C4012093C30122EC30E03093C6012093C1
:1008A000C50126EC30E03093C8012093C7011092B7
:1008B000CA011092CB011092CC011092CD0110927E
:1008C0005102109250028093520290935302A093CF
:1008D0005402B093550286E191E090934F028093C9
:1008E0004E021092650210926402109267021092FA
:1008F0006602109269021092680210926B021092C6
:100900006A0260916C026E7F6D7F60936C026695E7
:10091000617081E068278FE00E94CE03EDEBF0E08C
:100920002491E9EAF0E08491882399F090E0880F1F
:10093000991FFC01EA57FF4FA591B491FC01E057C4
:10094000FF4F859194918FB7F894EC91E22BEC9343
:100950008FBFEDEBF0E0E491E0935E02E9EAF0E0B6
:10096000E491F0E0EE0FFF1FE057FF4F8591949167
:100970009093600280935F02ECEBF0E02491E8EA50
:10098000F0E084918823C1F090E0880F991FFC016A
:10099000EA57FF4FC591D491FC01E057FF4FA59155
:1009A000B4919FB7F8948881E22FE0958E238883D5
:1009B0008C91E823EC939FBF80916C0281FD04C071
:1009C00061E08EE00E94CE038EE080935A02ECEB51
:1009D000F0E0E491E0935B02E8EAF0E0E491F0E01B
:1009E000EE0FFF1FE458FF4F8591949190935D02A5
:1009F00080935C02DF91CF910895789484B58260F2
:100A000084BD84B5816084BD85B5826085BD85B5B2
:100A1000816085BD80916E00816080936E00109230
:100A200081008091810082608093810080918100AB
:100A3000816080938100809180008160809380003C
:100A40008091B10084608093B1008091B00081609A
:100A50008093B00080917A00846080937A008091C6
:100A60007A00826080937A0080917A00816080931E
:100A70007A0080917A00806880937A001092C10099
:100A8000E091C101F091C20182E08083E091BD015B
:100A9000F091BE011082E091BF01F091C0018FEC96
:100AA00080831092C901E091C501F091C60186E0F2
:100AB0008083E091C301F091C401808180618083D3
:100AC000E091C301F091C401808188608083E0914E
:100AD000C301F091C401808180688083E091C301EB
:100AE000F091C40180818F7D808310926902109201
:100AF00068021092670210926602109265021092CC
:100B000064028DE991E090936B0280936A02909168
:100B10005A02963108F058C02DEB30E03093650250
:100B2000209364022BE931E0309367022093660240
:100B30002CE231E030936902209368024091680012
:100B4000983058F031E09E3008F430E021E0822FF8
:100B500001C0880F3A95EAF701C084E0842B8093A6
:100B60006800983038F09E3040F0963148F020E030
:100B700030E008C02DE630E005C02BE630E002C0D2
:100B80002CE630E03093620220936102983030F41A
:100B900081E001C0880F9A95EAF70EC0292F30E056
:100BA0009E3018F42850310902C02E50310981E0DE
:100BB00001C0880F2A95EAF78093630280916A0248
:100BC00090916B020197F1F7809168029091690210
:100BD000892B49F1E091A601F091A70182E0EE3462
:100BE000F80709F1309739F0A389B4899C91858978
:100BF000809589238C9380916C028E7F80936C0208
:100C00001092A5011092A4018EE492E09093A701A6
:100C10008093A601E0916102F0916202908180913F
:100C20006302892B808360E177E280E090E00E949C
:100C3000B20084E291E00E949E0260ED77E080E0E5
:100C400090E00E94B20080E391E00E949E0260ED7D
:100C500077E080E090E00E94B20087E491E00E949B
:100C60009E0281E591E00E949E0260EA7FE080E0C2
:100C700090E00E94B20083E591E00E949E0260EA4B
:100C80007FE080E090E00E94B2008EE492E00E945B
:100C90006102892B51F08EE492E00E947902682F64
:100CA00081EB91E00E947F01F0CF81EB91E00E9407
:100CB0004701892B51F081EB91E00E942501682FBB
:100CC0008EE492E00E941102F0CF0E94EE01DDCF8F
:100CD00086E191E090934F0280934E028091A601AD
:100CE0009091A7018E54924071F4E0916102F091CD
:100CF00062029081809163028095892380831092A3
:100D0000A7011092A601089597FB072E16F40094F0
:100D100007D077FD09D00E94980607FC05D03EF465
:100D2000909581959F4F0895709561957F4F089597
:100D3000AA1BBB1B51E107C0AA1FBB1FA617B70701
:100D400010F0A61BB70B881F991F5A95A9F780951D
:100D50009095BC01CD010895EE0FFF1F0590F49111
:100D6000E02D099481E090E0F8940C94B70610E02F
:100D7000C2E6D0E004C0FE010E94AC062196C33654
:080D8000D107C9F7F894FFCF79
:100D8800000000007F01EC001601CC01470125019D
:100D98003901000000001102EC009B021002610200
:100DA8007902F80141542B434D47463D310D0A0065
:100DB80041542B434D47533D223039343634313278
:100DC800323938220D0A0062616F20646F6E672025
:100DD800001A00415444303934363431323239380B
:040DE8003B0D0A00B5
:00000001FF
