:100000000C947A000C94A2000C94A2000C946F043F
:100010000C946F040C946F040C94A2000C9444058F
:100020000C94A2000C94A2000C94A2000C94A200C8
:100030000C94A2000C94A2000C94A2000C94A200B8
:100040000C949C0C0C94A2000C940F030C94E902E9
:100050000C94A2000C94A2000C94A2000C94A20098
:100060000C9441030C94A200084AD73B3BCE016E8E
:1000700084BCBFFDC12F3D6C74319ABD56833DDAFF
:100080003D00C77F11BED9E4BB4C3E916BAAAABE0E
:10009000000000803F000000000800020100000393
:1000A0000407000000000000000000000000240021
:1000B00027002A000000000023002600290000007D
:1000C0000000250028002B00040404040404040498
:1000D00002020202020203030303030301020408F3
:1000E00010204080010204081020010204081020A2
:1000F000E411C81111241FBECFEFD8E0DEBFCDBF81
:1001000012E0A0E0B1E0E8EEFCE202C005900D9242
:10011000A832B107D9F724E0A8E2B2E001C01D92ED
:10012000A93AB207E1F710E0C9E7D0E004C021978F
:10013000FE010E945C16C837D107C9F70E94FD0C6A
:100140000C9467160C94000008950895FC01538DDB
:10015000448D252F30E0842F90E0821B930B5417A1
:1001600010F0CF96089501970895FC01918D828D2E
:10017000981761F0828DDF01A80FB11D5D968C91FB
:10018000928D9F5F9F73928F90E008958FEF9FEF06
:100190000895FC01918D828D981731F0828DE80FC2
:1001A000F11D858D90E008958FEF9FEF0895FC017C
:1001B000918D228D892F90E0805C9F4F821B910949
:1001C0008F739927089588E293E00E94D70021E079
:1001D000892B09F420E0822F0895FC01848DDF0132
:1001E000A80FB11DA35ABF4F2C91848D90E00196AA
:1001F0008F739927848FA689B7892C93A089B18999
:100200008C91837080648C93938D848D981306C039
:100210000288F389E02D80818F7D80830895EF929D
:10022000FF920F931F93CF93DF93EC0181E0888FB0
:100230009B8D8C8D981305C0E889F989808185FD97
:1002400026C0F62E0B8D10E00F5F1F4F0F73112786
:10025000E02E8C8DE8120CC00FB607FCFACFE889AF
:10026000F989808185FFF5CFCE010E94ED00F1CFA5
:100270008B8DFE01E80FF11DE35AFF4FF0829FB70F
:10028000F8940B8FEA89FB89808180620AC09FB74E
:10029000F894EE89FF896083E889F9898081837009
:1002A000806480839FBF81E090E0DF91CF911F91B8
:1002B0000F91FF90EF900895CF93DF93EC01888D1D
:1002C0008823C9F0EA89FB89808185FD05C0A8895A
:1002D000B9898C9186FD0FC00FB607FCF5CF8081E0
:1002E00085FFF2CFA889B9898C9185FFEDCFCE012A
:1002F0000E94ED00E7CFDF91CF91089580E090E07C
:10030000892B29F00E94E30081110C9400000895CC
:1003100085ED8093BC008091BC0084FDFCCF1092E1
:10032000270308954091AC02262F30E0240F311DA1
:1003300021323105DCF4209127032430C9F4FC017B
:1003400080E090E0861758F43091AC022191DC01F6
:10035000A457BD4FA30FB11D2C930196F3CF8091ED
:10036000AC02680F6093AC0280E0089581E00895CC
:1003700082E008952091D5023091D60228173907DE
:1003800071F49091D3028091D402981741F0E091DA
:10039000D302F0E0E45BFD4F808190E008958FEFA1
:1003A0009FEF089508951F93CF93DF93DC015C9630
:1003B0008D919C915D97009739F421E030E0139680
:1003C0003C932E9312973BC05196ED91FC9152971E
:1003D00050962C915097322F30951FB75E964C91C6
:1003E0005E97742F727041FD6095F8944081772379
:1003F00011F0422B01C043234083EC012197F1F718
:1004000048E0508160FF02C0522B01C0532350834B
:10041000EC012197F1F76695415099F78081772398
:1004200019F08323808302C0282B20831FBF5C9692
:100430008D919C915D970197F1F781E090E0DF91BC
:10044000CF911F9108952091D5023091D60228179F
:10045000390771F48091D4022091D30290E0805C3E
:100460009F4F821B910960E470E00E94121608956C
:1004700080E090E008952091D5023091D6022817AF
:100480003907B9F49091D3028091D402981789F07A
:10049000E091D302F0E0E45BFD4F80812091D30234
:1004A00030E02F5F3F4F2F7333272093D30290E02C
:1004B00008958FEF9FEF0895E091DC028091DB02B9
:1004C000E81730F4F0E0EF51FD4F808190E008959F
:1004D0008FEF9FEF08959091DC028091DB029817D7
:1004E00050F4E92FF0E0EF51FD4F208130E09F5FA5
:1004F0009093DC0202C02FEF3FEFC9010895809175
:10050000DB0290E02091DC02821B91090895CF92DA
:10051000DF92EF92FF920F931F93CF93DF937C01B3
:10052000CB018A012091E002222389F0EB016B01CB
:10053000C40ED51ECC15DD0569F06991D701ED918A
:10054000FC910190F081E02DC7010995F3CF642F54
:100550000E949201C801DF91CF911F910F91FF90EE
:10056000EF90DF90CF900895CF93DF931F92CDB798
:10057000DEB769832091E0022223D1F02091DD02D1
:10058000203240F021E030E0FC013383228380E020
:1005900090E015C08091DE02E82FF0E0E45DFD4FB1
:1005A000998190838F5F8093DE028093DD0205C086
:1005B00061E0CE0101960E94920181E090E00F90EF
:1005C000DF91CF910895089580E090E008950E9412
:1005D00062161F920F920FB60F9211242F933F9322
:1005E0004F935F936F937F938F939F93AF93BF933B
:1005F000EF93FF9388E293E00E94ED00FF91EF916B
:10060000BF91AF919F918F917F916F915F914F912A
:100610003F912F910F900FBE0F901F9018951F9232
:100620000F920FB60F9211242F938F939F93EF93F6
:10063000FF93E0913803F09139038081E0913E030C
:10064000F0913F0382FD12C09081809141038F5F42
:100650008F7320914203821751F0E0914103F0E043
:10066000E85DFC4F958F8093410301C08081FF912D
:10067000EF919F918F912F910F900FBE0F901F9030
:1006800018951F920F920FB60F9211242F933F933C
:100690004F935F936F937F938F939F93AF93BF938A
:1006A000EF93FF938091B900887F803609F49CC056
:1006B00068F5883209F45BC090F4803109F454C0C5
:1006C00038F4882309F4F6C0883009F44DC0F6C028
:1006D000883109F44CC0803209F45DC0EFC0803429
:1006E00009F468C048F4803309F455C0883309F030
:1006F000E5C080932503D8C0803509F44FC0883504
:1007000009F45DC0883409F0D9C0D6C0883909F42D
:10071000C7C0A8F4883709F467C038F4883609F4EC
:1007200063C0803709F460C0C9C0883809F4B8C014
:10073000803909F45FC0803809F0C0C05BC0803BDD
:1007400009F486C038F4803A09F466C0883A09F49E
:100750007FC0B4C0803C09F4A7C0883C09F4A4C0A1
:10076000883B09F48AC0AAC08091220310C09091EE
:10077000240380912303981770F5E091240381E00E
:100780008E0F80932403F0E0EF5FFC4F8081809315
:10079000BB0085EC86C0809325038EC0E0912403C6
:1007A00081E08E0F809324038091BB00F0E0EF5F27
:1007B000FC4F808390912403809123036EC0E091CD
:1007C000240381E08E0F809324038091BB00F0E02E
:1007D000EF5FFC4F80838091260381116DC081E023
:1007E0008093210384EA61C083E080932703109201
:1007F000CE02CFCF8091CE02803208F051C0E0917E
:10080000CE0281E08E0F8093CE028091BB00F0E09B
:10081000E255FD4F8083BDCF85EC8093BC001092E4
:1008200027038091CE02803230F4E091CE02F0E0D6
:10083000E255FD4F10826091CE0270E0E091CF0250
:10084000F091D0028EEA92E009951092CE0236C065
:1008500084E0809327031092AD021092AC02E091E5
:10086000D102F091D20209958091AC02811105C0AC
:1008700081E08093AC0210928C02E091AD0281E0A5
:100880008E0F8093AD02F0E0E457FD4F808180939E
:10089000BB009091AD028091AC02981708F479CF1B
:1008A00085E88093BC000AC085EC8093BC00109260
:1008B000270304C0109225030E948801FF91EF9145
:1008C000BF91AF919F918F917F916F915F914F9168
:1008D0003F912F910F900FBE0F901F9018951F9270
:1008E0000F920FB60F9211242F933F934F935F9364
:1008F0006F937F938F939F93AF93BF93EF93FF93E8
:10090000E091D502F091D602309709F451C0968D4E
:10091000A685B785858591FF04C09C91892329F41C
:1009200047C09C91892309F043C0A389B4899C9155
:100930008589809589238C93868997890197F1F71A
:10094000608D718DA685B785558538E020E0CB0197
:100950000197F1F7822F90E095958795282F4C917C
:10096000452309F02068315091F7868D81FD20954F
:100970008091D40290E001968F7399273091D30231
:10098000381749F0A091D402B0E0A45BBD4F2C937E
:100990008093D40203C0868D8160868F828D938D73
:1009A0000197F1F7A389B4899C918589892B8C9350
:1009B000FF91EF91BF91AF919F918F917F916F9137
:1009C0005F914F913F912F910F900FBE0F901F900D
:1009D00018953091DD02313208F04AC0809127032A
:1009E0008111FCCF9091DF0222E0209327036093D6
:1009F00026032FEF20932503109224033093230323
:100A0000ECE2F2E0A1E0B3E020E0321721F0419106
:100A10004D932F5FFACF1092220320912203990F5A
:100A2000922B9093220390912103913061F41092C4
:100A30002103909122039093BB009091BC0093FD01
:100A4000F8CF95EC01C095EE9093BC0090912703F0
:100A50009230E1F3909125039F3F79F08091250337
:100A6000803241F080912503803331F084E005C06D
:100A700081E003C082E001C083E01092DE021092A8
:100A8000DD021092E00208951F920F920FB60F92AE
:100A900011242F933F934F935F936F937F938F9383
:100AA0009F93AF93BF93EF93FF93E0E0F0E009953E
:100AB000FF91EF91BF91AF919F918F917F916F9136
:100AC0005F914F913F912F910F900FBE0F901F900C
:100AD0001895DC0170E0FB01E452FF4FE49114969D
:100AE000EC93149750E0FA01E452FF4FE49115960D
:100AF000EC93159768537F4FFB018491E82FF0E04A
:100B0000EE0FFF1FE254FF4F8591949117969C932F
:100B10008E931697FA01E853FF4FE491F0E0EE0F41
:100B2000FF1FEC54FF4F8591949119969C938E93DF
:100B30001897FB016491E62FF0E0EE0FFF1FE655DA
:100B4000FF4F859194911B969C938E931A978DE7F6
:100B500096E11D969C938E931C9708950F931F9377
:100B6000CF93DF93FC01A285B3859C918481892B6F
:100B70008C93A681B7819C918481809589238C93E5
:100B80008BE090E00197F1F7A681B7819C91848179
:100B9000892B8C9383E290E00197F1F7A681B781CE
:100BA0009C918481809589238C93A285B3859C91A7
:100BB0008481809589238C93A085B1859C918581C2
:100BC000892309F058C0EF010E943D0C2C853D851A
:100BD000890120E030E00855194E2F4F3F4FDC01CE
:100BE000CB01800F911FA21FB31F8E879F87A88BF9
:100BF000B98BE885F98590818D81892361F40E9404
:100C00003D0C0E851F852889398906171707280787
:100C1000390778F730C00E943D0C2C853D85DC01FA
:100C2000CB01820F931FA11DB11D8E879F87A88BBB
:100C3000B98BE885F98590818D81892361F00E94C7
:100C40003D0C0E851F852889398906171707280747
:100C5000390778F710C00E943D0C2C853D85A9010D
:100C6000455051092E853F85FA01E21BF30BCF0158
:100C7000860F971F02C080E090E0DF91CF911F9117
:100C80000F910895CF93DF93BC0188E293E00E9417
:100C9000E60CEC0168EE71E088E293E00E94E60C5D
:100CA0008C0F9D1FDF91CF9108958F929F92AF92ED
:100CB000BF920F931F93CF93DF93CDB7DEB7A1976A
:100CC0000FB6F894DEBF0FBECDBF19A2423008F4B4
:100CD0004AE08E010F5D1F4F842E912CA12CB12C68
:100CE000A50194010E942616E62FB901CA01015000
:100CF0001109EA3014F4E05D01C0E95CD801EC931D
:100D0000232B242B252B61F7B80188E293E00E9466
:100D1000E60CA1960FB6F894DEBF0FBECDBFDF91F3
:100D2000CF911F910F91BF90AF909F908F9008959A
:100D30004F925F926F927F928F929F92AF92BF92EB
:100D4000CF92DF92EF92FF926B017C019B01AC018D
:100D50000E940D16882319F06CE172E01AC046015A
:100D60005701E894B7F82FEF3FEF4FE75FE7C50172
:100D7000B4010E940D16811112C02FEF3FEF4FE713
:100D80005FE7C501B4010E940914181644F460E23B
:100D900072E088E293E00E94E60C7C0183C02FEFB2
:100DA0003FEF4FE75FE4C701B6010E948F151816A9
:100DB0001CF464E272E0EDCF2FEF3FEF4FE75FEC02
:100DC000C701B6010E94091487FDF3CF20E030E08F
:100DD000A901C701B6010E94091487FF0BC06DE28B
:100DE00088E293E00E940F015C01F7FAF094F7F8B3
:100DF000F09402C0A12CB12C2AE037ED43EA5BE36A
:100E0000C701B6010E942B132B013C010E948714DD
:100E10006B017C010E94B6149B01AC01C301B201BD
:100E20000E942A132B013C014AE0C701B6010E942F
:100E300055067C01EA0CFB1C6EE288E293E00E94FE
:100E40000F01E80EF91E20E030E040E251E4C3015A
:100E5000B2010E949C152B013C010E9487144B019A
:100E6000A12CB12C4AE0C501B4010E945506E80E40
:100E7000F91EC501B4010E94B6149B01AC01C30167
:100E8000B2010E942A1320E030E040E251E40E94C7
:100E90009C150E94871480E090E04AE00E9455066D
:100EA000E80EF91E68EE71E088E293E00E94E60C1D
:100EB0008E0D9F1DFF90EF90DF90CF90BF90AF9071
:100EC0009F908F907F906F905F904F90089590913A
:100ED00027039111FCCF91E09093270340932603C1
:100EE0002FEF2093250310922403260F2093230332
:100EF0009093220390912203880F892B80932203E1
:100F000080912103813061F41092210380912203AA
:100F10008093BB008091BC0083FDF8CF85EC01C0BD
:100F200085EE8093BC00809127038130E1F38091AE
:100F30002403861710F460912403A1E0B3E0E1EEEE
:100F4000F2E080E0861721F09D9191938F5FFACFB8
:100F500008952F923F924F925F926F927F928F925D
:100F60009F92AF92BF92CF92DF92EF92FF92CF9378
:100F7000DF93CDB7DEB728970FB6F894DEBF0FBE6C
:100F8000CDBF81E08093E00288E68093DF0210927B
:100F9000DE021092DD028091380490913904DC0168
:100FA000ED91FC910190F081E02D6BE3099560E0FB
:100FB00080913804909139040E94E90441E06EE088
:100FC00088E60E9467071092DC028093DB02809122
:100FD000380490913904DC01ED91FC910284F38591
:100FE000E02D0995F82E8091380490913904DC01A8
:100FF000ED91FC910284F385E02D099520E030E02D
:101000003F2D822B932B90933B0480933A04809145
:10101000380490913904DC01ED91FC910284F38550
:10102000E02D0995F82E8091380490913904DC0167
:10103000ED91FC910284F385E02D099520E030E0EC
:101040003F2D822B932B90933D0480933C04809101
:10105000380490913904DC01ED91FC910284F38510
:10106000E02D0995F82E8091380490913904DC0127
:10107000ED91FC910284F385E02D099520E030E0AC
:101080003F2D822B932B90933F0480933E048091BD
:10109000380490913904DC01ED91FC910284F385D0
:1010A000E02D0995F82E8091380490913904DC01E7
:1010B000ED91FC910284F385E02D099520E030E06C
:1010C0003F2D822B932B9093410480934004809179
:1010D000380490913904DC01ED91FC910284F38590
:1010E000E02D0995F82E8091380490913904DC01A7
:1010F000ED91FC910284F385E02D099520E030E02C
:101100003F2D822B932B9093430480934204809134
:10111000380490913904DC01ED91FC910284F3854F
:10112000E02D0995F82E8091380490913904DC0166
:10113000ED91FC910284F385E02D099520E030E0EB
:101140003F2D822B932B90934504809344048091F0
:10115000380490913904DC01ED91FC910284F3850F
:10116000E02D0995F82E8091380490913904DC0126
:10117000ED91FC910284F385E02D099560E070E02B
:101180007F2D3B01682A792A7092470460924604B9
:101190006091400470914104072E000C880B990B5C
:1011A0000E94B81420E030EF41E456E40E942B1373
:1011B00020E030E04AEA53E40E940E1460935404A5
:1011C00070935504809356049093570460913A04A9
:1011D00070913B04072E000C880B990B0E94B814E9
:1011E00020E030E040E858E30E949C154B015C0190
:1011F000609358047093590480935A0490935B044D
:1012000060913C0470913D04072E000C880B990BF3
:101210000E94B81420E030E040E858E30E949C159A
:101220006B017C0160935C0470935D0480935E04A9
:1012300090935F0460913E0470913F04072E000C70
:10124000880B990B0E94B81420E030E040E858E386
:101250000E949C151B012C01609360047093610433
:10126000809362049093630420E030E0A901C501FB
:10127000B4010E948F15A501940118160CF0505866
:10128000C201B1010E942B139B01AC01C701B60141
:101290000E94AA1320E030E044EB53E40E949C1526
:1012A00020E030E040E05FE30E949C152BED3FE042
:1012B00049E450E40E940E1460937C0470937D0412
:1012C00080937E0490937F0420E030E0A901C70161
:1012D000B6010E948F15181624F0F7FAF094F7F86B
:1012E000F094A7019601C201B1010E942B139B014A
:1012F000AC01C501B4010E94AA1320E030E044EB28
:1013000053E40E949C1520E030E040E05FEB0E9437
:101310009C152BED3FE049E450E40E940E146093CD
:10132000800470938104809382049093830460917D
:10133000440470914504072E000C880B990B0E9401
:10134000B81420E030E043E852E40E940E146B0130
:101350007C016091420470914304072E000C880BBD
:10136000990B0E94B81420E030E043E852E40E9458
:101370000E14209148043091490440914A04509140
:101380004B040E942A136093640470936504809355
:1013900066049093670420914C0430914D04409171
:1013A0004E0450914F04C701B6010E942A13609366
:1013B00068047093690480936A0490936B04B3018A
:1013C000770C880B990B0E94B81420E030E043E8BA
:1013D00052E40E940E142091500430915104409127
:1013E0005204509153040E942A1360936C0470932A
:1013F0006D0480936E0490936F042FB7F8948091DE
:10140000D7029091D802A091D902B091DA022FBFF1
:10141000C0909804D0909904E0909A04F0909B04B6
:10142000BC01CD016C197D098E099F090E94B6147B
:101430002FE632E143E85AE30E949C156B017C01E0
:10144000609394047093950480939604909397040A
:1014500020916404309165044091660450916704C2
:101460000E949C152B013C019B01AC016091700412
:101470007091710480917204909173040E942B13F7
:10148000609370047093710480937204909373045A
:10149000209168043091690440916A0450916B0472
:1014A000C701B6010E949C154B015C019B01AC0178
:1014B0006091740470917504809176049091770422
:1014C0000E942B13609374047093750480937604C8
:1014D0009093770420916C0430916D0440916E04D8
:1014E00050916F04C701B6010E949C1520917804A9
:1014F0003091790440917A0450917B040E942B131F
:101500006D837E838F8398876093780470937904CA
:1015100080937A0490937B04C090A004D090A1049F
:10152000E090A204F090A30480919C0490919D040B
:10153000A0919E04B0919F0489839A83AB83BC835E
:10154000209188043091890440918A0450918B0441
:10155000C301B2010E942B13A70196010E949C15A2
:101560002B013C0120917C0430917D0440917E044C
:1015700050917F0469817A818B819C810E949C15A6
:101580009B01AC01C301B2010E942B13609388043C
:101590007093890480938A0490938B0420918C0427
:1015A00030918D0440918E0450918F04C501B40197
:1015B0000E942B13A70196010E949C156B017C01D0
:1015C00020918004309181044091820450918304E1
:1015D00069817A818B819C810E949C159B01AC0161
:1015E000C701B6010E942B1360938C0470938D0485
:1015F00080938E0490938F048D819E81AF81B885F6
:101600008093900490939104A0939204B0939304D8
:101610002FB7F8948091D7029091D802A091D90267
:10162000B091DA022FBF8093980490939904A0930D
:101630009A04B0939B0428960FB6F894DEBF0FBEB1
:10164000CDBFDF91CF91FF90EF90DF90CF90BF9013
:10165000AF909F908F907F906F905F904F903F9052
:101660002F9008951F93CF93DF93162F91E09093BF
:10167000E00298E69093DF021092DE021092DD0203
:10168000C8E3D4E0A881B981ED91FC911197019054
:10169000F081E02D682FCD01099588819981DC01C9
:1016A000ED91FC910190F081E02D612F099561E0B1
:1016B00088819981DF91CF911F910C94E904CF9299
:1016C000DF92EF92FF920F931F93CF93DF936C0102
:1016D0007A018B01C0E0D0E0CE15DF0581F0D801A2
:1016E0006D918D01D601ED91FC910190F081E02D7D
:1016F000C6010995892B11F02196EECF7E01C70115
:10170000DF91CF911F910F91FF90EF90DF90CF90DD
:101710000895CF92DF92EF92FF92CF93DF936B0108
:101720007C016DE288E293E00E940F01EC016627E4
:101730007727CB016C197D098E099F094AE00E9429
:1017400055068C0F9D1FDF91CF91FF90EF90DF909A
:10175000CF900895BC01990F880B990B97FD0C94BD
:10176000890B4AE00C94550690E0FC01EA56FF4FC5
:101770002491FC01E452FF4F3491FC01E853FF4FE8
:10178000E491EE2309F43CC0222339F1233091F097
:1017900038F42130A9F0223001F584B58F7D12C0D4
:1017A000273091F02830A1F02430B9F480918000E6
:1017B0008F7D03C0809180008F77809380000DC063
:1017C00084B58F7784BD09C08091B0008F7703C046
:1017D0008091B0008F7D8093B000F0E0EE0FFF1F8E
:1017E000E254FF4FA591B4919FB7F894611104C0E2
:1017F0008C913095382302C0EC913E2B3C939FBFD7
:101800000895CF93DF9390E0FC01E452FF4F2491C1
:10181000FC01E853FF4F8491882361F190E0880F29
:10182000991FFC01E655FF4FC591D491FC01E2548C
:10183000FF4FA591B491611109C09FB7F8948881B9
:10184000209582238883EC912E230BC0623061F4B3
:101850009FB7F8948881322F309583238883EC9149
:101860002E2B2C939FBF06C08FB7F894E8812E2BA8
:1018700028838FBFDF91CF9108953FB7F89480916F
:10188000A5049091A604A091A704B091A80426B540
:10189000A89B05C02F3F19F00196A11DB11D3FBFA8
:1018A000BA2FA92F982F8827820F911DA11DB11D36
:1018B000BC01CD0142E0660F771F881F991F4A9532
:1018C000D1F708958F929F92AF92BF92CF92DF92FD
:1018D000EF92FF926B017C010E943D0C4B015C0179
:1018E000C114D104E104F104F1F00E943D0CDC01CB
:1018F000CB0188199909AA09BB09883E9340A10523
:10190000B10570F321E0C21AD108E108F10888EEB0
:10191000880E83E0981EA11CB11CC114D104E104FF
:10192000F10419F7DDCFFF90EF90DF90CF90BF90DB
:10193000AF909F908F9008951F920F920FB60F92C5
:1019400011242F933F938F939F93AF93BF938091D5
:10195000D7029091D802A091D902B091DA023091C9
:10196000A40423E0230F2D3720F40196A11DB11DFF
:1019700005C026E8230F0296A11DB11D2093A404E3
:101980008093D7029093D802A093D902B093DA0241
:101990008091A5049091A604A091A704B091A804F9
:1019A0000196A11DB11D8093A5049093A604A09358
:1019B000A704B093A804BF91AF919F918F913F91DD
:1019C0002F910F900FBE0F901F9018956115710504
:1019D00079F0FB0101900020E9F73197AF01461B38
:1019E000570BDC01ED91FC910280F381E02D09940D
:1019F00080E090E008950C94E60CCF93DF93CDB790
:101A0000DEB72D970FB6F894DEBF0FBECDBF78942A
:101A100084B5826084BD84B5816084BD85B58260F3
:101A200085BD85B5816085BD80916E0081608093A4
:101A30006E0010928100809181008260809381000D
:101A4000809181008160809381008091800081601D
:101A5000809380008091B10084608093B100809178
:101A6000B00081608093B00080917A0084608093A0
:101A70007A0080917A00826080937A0080917A0067
:101A8000816080937A0080917A00806880937A00E8
:101A90001092C10060E177E280E090E00E94620C69
:101AA0001092DC021092DB021092DE021092DD0234
:101AB0001092270381E0809326031092210361E0B6
:101AC00082E10E94B40B61E083E10E94B40B80913B
:101AD000B9008E7F8093B9008091B9008D7F80938B
:101AE000B90088E48093B80085E48093BC0084EA60
:101AF00090E09093D2028093D10285EA90E0909397
:101B0000D0028093CF0260E089E10E94320B60E056
:101B10008AE10E94320B68E08BE10E94320B60E0A8
:101B20008CE10E94320B61E08BE60E94320B0E9436
:101B3000A90710927004109271041092720410920E
:101B4000730410927404109275041092760410922B
:101B5000770480917C0490917D04A0917E04B091E3
:101B60007F048093880490938904A0938A04B0939F
:101B70008B048091800490918104A0918204B091A3
:101B8000830480938C0490938D04A0938E04B0936F
:101B90008F042FB7F8948091D7029091D802A0912A
:101BA000D902B091DA022FBF8093980490939904E0
:101BB000A0939A04B0939B0468EE73E080E090E0F9
:101BC0000E94620C68EE71E088E293E00E94E60CED
:101BD00086E391E00E9442068FE591E00E94420672
:101BE00066E771E088E293E00E94FB0CC12CD12CE7
:101BF0007601460157012601370100E010E0C801D7
:101C000068EE73E00E941216892B31F46CE871E0E3
:101C100088E293E00E94FB0C21E02093E00238E68A
:101C20003093DF021092DE021092DD0280913804C0
:101C300090913904DC01ED91FC910190F081E02D4F
:101C40006BE3099560E080913804909139040E941B
:101C5000E90441E06EE088E60E9467071092DC022A
:101C60008093DB028091380490913904DC01ED917E
:101C7000FC910284F385E02D0995809138049091C0
:101C80003904DC01ED91FC910284F385E02D099586
:101C90008091380490913904DC01ED91FC9102842B
:101CA000F385E02D09958091380490913904DC0189
:101CB000ED91FC910284F385E02D09958091380423
:101CC00090913904DC01ED91FC910284F385E02DC3
:101CD00009958091380490913904DC01ED91FC91D3
:101CE0000284F385E02D09958091380490913904A0
:101CF000DC01ED91FC910284F385E02D0995809142
:101D0000380490913904DC01ED91FC910284F38553
:101D1000E02D09958091380490913904DC01ED9112
:101D2000FC910284F385E02D099589878091380420
:101D300090913904DC01ED91FC910284F385E02D52
:101D40000995B985BA83198229813A81282B392BC3
:101D50003D872C878091380490913904DC01ED9106
:101D6000FC910284F385E02D0995382E809138048A
:101D700090913904DC01ED91FC910284F385E02D12
:101D800009953E821D822D813E81282B392B3A8771
:101D900029878091380490913904DC01ED91FC9100
:101DA0000284F385E02D09958B878091380490910A
:101DB0003904DC01ED91FC910284F385E02D099555
:101DC0001C012C853D85B901330F880B990B0E94AE
:101DD000B81420E030E043E852E40E940E149B0166
:101DE000AC01C301B2010E942B132B013C01A98558
:101DF000BA85BD01BB0F880B990B0E94B81420E077
:101E000030E043E852E40E940E149B01AC01C5018E
:101E1000B4010E942B134B015C01BB85B8871F8264
:101E20006F81788562297329072E000C880B990B26
:101E30000E94B81420E030E043E852E40E940E14FF
:101E40009B01AC01C701B6010E942B136B017C0101
:101E50000F5F1F4F083B2BE0120709F0D0CE20E0A8
:101E600030E84BE355E4C301B2010E940E146093C5
:101E700048047093490480934A0490934B0420E0F3
:101E800030E84BE355E4C501B4010E940E146093A1
:101E90004C0470934D0480934E0490934F0420E0C3
:101EA00030E84BE355E4C701B6010E940E1460937D
:101EB000500470935104809352049093530468EE3D
:101EC00071E088E293E00E94E60C8EE891E00E94C7
:101ED000420666E971E088E293E00E94FB0C6091A3
:101EE00048047091490480914A0490914B040E94E7
:101EF00098066BE971E088E293E00E94FB0C609128
:101F00004C0470914D0480914E0490914F040E94B6
:101F1000980660EA71E088E293E00E94FB0C609111
:101F200050047091510480915204909153040E9486
:101F3000980685EA91E00E94420666E371E088E235
:101F400093E00E94FB0C68EB7BE080E090E00E9455
:101F5000620CE0913803F091390382E08083E091D4
:101F60003403F09135031082E0913603F09137038A
:101F70008FEC808310924003E0913C03F0913D038D
:101F800086E08083E0913A03F0913B038081806199
:101F90008083E0913A03F0913B03808188608083E5
:101FA000E0913A03F0913B03808180688083E09167
:101FB0003A03F0913B0380818F7D80831092280447
:101FC00010922704109226041092250410922404E3
:101FD000109223048DE991E090932A0480932904C0
:101FE00090911904963108F058C02DEB30E03093F1
:101FF0002404209323042BE931E03093260420931A
:1020000025042CE231E030932804209327044091EA
:102010006800983058F031E09E3008F430E021E05C
:10202000822F01C0880F3A95EAF701C084E0842B23
:1020300080936800983038F09E3040F0963148F038
:1020400020E030E008C02DE630E005C02BE630E0AF
:1020500002C02CE630E03093210420932004983015
:1020600030F481E001C0880F9A95EAF70EC0292F5D
:1020700030E09E3018F42850310902C02E5031094A
:1020800081E001C0880F2A95EAF7809322048091AD
:10209000290490912A040197F1F7809127049091E7
:1020A0002804892B49F1E091D502F091D60234E061
:1020B000ED30F30709F1309739F0A389B4899C9189
:1020C0008589809589238C9380912B048E7F8093C2
:1020D0002B041092D4021092D3028DE094E09093DE
:1020E000D6028093D502E0912004F09121049081E2
:1020F00080912204892B808361E08DE00E94010C95
:1021000060E08DE00E94B40B89E3882E912CA12C15
:10211000B12C62E370E080E090E00E94620C0E94CB
:10212000A90760918C0470918D0480918E04909128
:102130008F040E9480146B017C016091880470916F
:10214000890480918A0490918B040E9480149B01E1
:1021500077FF04C022273327261B370B263531058E
:102160005CF4C601D7FE04C0882799278C199D0905
:10217000863591050CF46BC068EE73E080E090E06A
:102180000E94620C0E94A9076091880470918904E2
:1021900080918A0490918B040E9480149B0177FFA8
:1021A00004C022273327261B370B26353105A4F41C
:1021B00060918C0470918D0480918E0490918F04B5
:1021C0000E9480149B0177FF04C022273327261B1F
:1021D000370B26353105DCF168EC71E08DE094E0D9
:1021E0000E94FB0C60ED77E080E090E00E94620CC2
:1021F00064ED71E08DE094E00E94FB0C60ED77E00F
:1022000080E090E00E94620C6BEE71E08DE094E063
:102210000E94FB0C65EF71E08DE094E00E94FB0CE6
:1022200060EA7FE080E090E00E94620C67EF71E07E
:102230008DE094E00E94FB0C60EA7FE080E090E09B
:102240000E94620C61E08DE00E94B40BFBCF8BEF2B
:1022500093E00E94AE05BC0180E090E0A5019401EE
:102260000E94261629013A0189EE93E00E94AE05EC
:10227000BC0180E090E0A50194010E94261629830C
:102280003A834B835C8309811A8187ED93E00E9436
:10229000AE05BC0180E090E0A50194010E942616E5
:1022A00069017A013E832D8385EC93E00E94AE059F
:1022B000BC0180E090E0A50194010E9426163887B9
:1022C0002F8368E072E088E293E00E94FB0CC20179
:1022D0000E94AA0B6EE072E088E293E00E94FB0C81
:1022E00089819A810E94AA0B65E172E088E293E0FD
:1022F0000E94FB0C4AE0C701B6010E94550668EE39
:1023000071E088E293E00E94E60C452811F18BE031
:10231000012BD1F00E94D61260E08AE00E94B40B3B
:1023200068EE73E080E090E00E94620C8AE00E9418
:10233000D61260E08BE00E94B40B68EE73E080E0A0
:1023400090E00E94620C21C00E94D61260E08AE0F8
:102350001AC0012B21F08AE00E94D61212C08D8192
:102360009E81892B21F4AF81B885AB2B31F062E4DB
:102370008AE00E94B40B62E405C060E08AE00E943B
:10238000B40B60E08BE00E94B40B0E947E01C1CED2
:1023900088E291E090930E0480930D048091D50221
:1023A0009091D6028D50944071F4E0912004F09108
:1023B000210490818091220480958923808310924A
:1023C000D6021092D502089510922B0310922A0380
:1023D00088EE93E0A0E0B0E080932C0390932D036F
:1023E000A0932E03B0932F0324E031E03093290310
:1023F0002093280325EC30E03093350320933403F9
:1024000024EC30E0309337032093360320EC30E0A7
:10241000309339032093380321EC30E030933B03B1
:1024200020933A0322EC30E030933D0320933C03A9
:1024300026EC30E030933F0320933E03109241039B
:1024400010924203109243031092440310922F04FF
:1024500010922E048093300490933104A0933204A0
:10246000B093330426E131E030932D0420932C0403
:102470002CE234E030933904209338044AE057EDDD
:1024800063EA7CE340939C0450939D0460939E0414
:1024900070939F0448E451EE6AE77FE34093A00401
:1024A0005093A1046093A2047093A30410921004AB
:1024B00010920F048093110490931204A0931304BC
:1024C000B093140488E291E090930E0480930D047D
:1024D00010922404109223041092260410922504D2
:1024E000109228041092270410922A0410922904B2
:1024F00060912B046E7F6D7F60932B0466956170F5
:1025000081E068278FE00E94B40B61E08FE00E94B9
:10251000010CEBEEF0E0E491E0931D04E7EDF0E058
:10252000E491F0E0EE0FFF1FE254FF4F859194918C
:1025300090931F0480931E0460E08EE00E94010CC3
:1025400080912B0481FD04C061E08EE00E94B40BF9
:102550008EE080931904EAEEF0E0E491E0931A042F
:10256000E6EDF0E0E491F0E0EE0FFF1FEC54FF4FDA
:102570008591949190931C0480931B0443E062E046
:102580008BEF93E00E94690545E064E089EE93E0FB
:102590000E94690546E067E087ED93E00E946905C7
:1025A00049E068E085EC93E00C946905CF93C82F6F
:1025B00061E00E94010CEC2FF0E0EA56FF4FE4913D
:1025C000E33019F150F4E130D1F0E230E1F584B5B7
:1025D000806284BD88EC88BD3BC0E73011F1E830F3
:1025E00049F1E43081F58091800080628093800021
:1025F00088EC90E090938B0080938A0029C084B58A
:10260000806884BD88EC87BD23C08091800080688D
:102610008093800088EC90E09093890080938800FC
:1026200017C08091B00080688093B00088EC8093E0
:10263000B3000EC08091B00080628093B00088EC3F
:102640008093B40005C061E08C2FCF910C94B40B43
:10265000CF9108955058BB27AA270E9442130C948B
:1026600055150E94471538F00E944E1520F039F498
:102670009F3F19F426F40C941D150EF4E095E7FB2A
:102680000C941715E92F0E94661558F3BA176207C4
:1026900073078407950720F079F4A6F50C94881544
:1026A0000EF4E0950B2EBA2FA02D0B01B90190016D
:1026B0000C01CA01A0011124FF27591B99F0593FB1
:1026C00050F4503E68F11A16F040A22F232F342FF9
:1026D0004427585FF3CF469537952795A795F04047
:1026E0005395C9F77EF41F16BA0B620B730B840B5C
:1026F000BAF09150A1F0FF0FBB1F661F771F881F14
:10270000C2F70EC0BA0F621F731F841F48F487956B
:1027100077956795B795F7959E3F08F0B0CF93955D
:10272000880F08F09927EE0F9795879508950E94D6
:10273000471560F080E891E009F49EEF0E944E1585
:1027400028F040E851E071F45EEF0CC00C941D15C8
:102750000C948815E92FE0780E94661540F3092E45
:10276000052AB1F3261737074807590738F00E2E08
:1027700007F8E02569F0E025E0640AC0EF6307F898
:10278000009407FADB01B9019D01DC01CA01AD012A
:10279000EF930E9425140E9455150E94DA135F9151
:1027A000552339F02BED3FE049E450FD49EC0C9402
:1027B0002B130895DF93DD27B92FBF7740E85FE340
:1027C0001616170648075B0718F4D92F0E949415B0
:1027D0009F938F937F936F930E940916E8E6F0E032
:1027E0000E9420150E9455152F913F914F915F91A6
:1027F0000E94AF15DD2351F09058A2EA2AED3FE088
:1028000049EC5FE3D0785D270E944213DF910C947E
:1028100055150E94F31408F481E008950E942214D3
:102820000C9455150E944E1558F00E94471540F023
:1028300029F45F3F29F00C94171551110C94891558
:102840000C941D150E94661568F39923B1F3552366
:1028500091F3951B550BBB27AA27621773078407B3
:1028600038F09F5F5F4F220F331F441FAA1FA9F349
:1028700035D00E2E3AF0E0E832D091505040E69537
:10288000001CCAF72BD0FE2F29D0660F771F881F98
:10289000BB1F261737074807AB07B0E809F0BB0B8B
:1028A000802DBF01FF2793585F4F3AF09E3F51059F
:1028B00078F00C9417150C9489155F3FE4F3983E5B
:1028C000D4F3869577956795B795F7959F5FC9F788
:1028D000880F911D9695879597F90895E1E0660F09
:1028E000771F881FBB1F621773078407BA0720F082
:1028F000621B730B840BBA0BEE1F88F7E0950895EB
:102900000E9487146894B1110C94891508950E944F
:102910006E1588F09F5798F0B92F9927B751B0F0EE
:10292000E1F0660F771F881F991F1AF0BA95C9F753
:1029300014C0B13091F00E948815B1E008950C9454
:102940008815672F782F8827B85F39F0B93FCCF307
:10295000869577956795B395D9F73EF490958095D0
:10296000709561957F4F8F4F9F4F0895E89409C0F0
:1029700097FB3EF490958095709561957F4F8F4FB2
:102980009F4F9923A9F0F92F96E9BB279395F695C8
:10299000879577956795B795F111F8CFFAF4BB0F46
:1029A00011F460FF1BC06F5F7F4F8F4F9F4F16C0AA
:1029B000882311F096E911C0772321F09EE8872F34
:1029C000762F05C0662371F096E8862F70E060E0F0
:1029D0002AF09A95660F771F881FDAF7880F969569
:1029E000879597F90895990F0008550FAA0BE0E80D
:1029F000FEEF16161706E807F907C0F012161306C1
:102A0000E407F50798F0621B730B840B950B39F400
:102A10000A2661F0232B242B252B21F408950A2666
:102A200009F4A140A6958FEF811D811D089597F9A6
:102A30009F6780E870E060E008959FEF80EC089564
:102A4000DF93CF931F930F93FF92EF92DF927B015F
:102A50008C01689406C0DA2EEF010E94AF15FE01CA
:102A6000E894A5912591359145915591A6F3EF01F3
:102A70000E944213FE019701A801DA9469F7DF90E2
:102A8000EF90FF900F911F91CF91DF910895002457
:102A90000A941616170618060906089500240A94C3
:102AA00012161306140605060895092E0394000C49
:102AB00011F4882352F0BB0F40F4BF2B11F460FFD8
:102AC00004C06F5F7F4F8F4F9F4F089557FD905801
:102AD000440F551F59F05F3F71F04795880F97FBE2
:102AE000991F61F09F3F79F087950895121613069C
:102AF0001406551FF2CF4695F1DF08C016161706CB
:102B00001806991FF1CF86957105610508940895FF
:102B1000E894BB2766277727CB0197F908950E9491
:102B2000F31408F48FEF08959B01AC0160E070E0AE
:102B300080E89FE30C940E140E94AF150C94551579
:102B40000E94471538F00E944E1520F0952311F091
:102B50000C9417150C941D1511240C9489150E94C2
:102B6000661570F3959FC1F3950F50E0551F629F56
:102B7000F001729FBB27F00DB11D639FAA27F00DD6
:102B8000B11DAA1F649F6627B00DA11D661F829FFD
:102B90002227B00DA11D621F739FB00DA11D621FE2
:102BA000839FA00D611D221F749F3327A00D611DFF
:102BB000231F849F600D211D822F762F6A2F1124E1
:102BC0009F5750409AF0F1F088234AF0EE0FFF1F14
:102BD000BB1F661F771F881F91505040A9F79E3F6B
:102BE000510580F00C9417150C9489155F3FE4F3A0
:102BF000983ED4F3869577956795B795F795E795C1
:102C00009F5FC1F7FE2B880F911D9695879597F9C9
:102C100008959B01AC010C949C150E94F314880B41
:102C2000990B089597FB072E16F4009407D077FDB3
:102C300009D00E94481607FC05D03EF49095819576
:102C40009F4F0895709561957F4F0895A1E21A2EC8
:102C5000AA1BBB1BFD010DC0AA1FBB1FEE1FFF1F40
:102C6000A217B307E407F50720F0A21BB30BE40B90
:102C7000F50B661F771F881F991F1A9469F76095D7
:102C80007095809590959B01AC01BD01CF01089591
:102C9000AA1BBB1B51E107C0AA1FBB1FA617B70782
:102CA00010F0A61BB70B881F991F5A95A9F780959E
:102CB0009095BC01CD010895EE0FFF1F0590F49192
:102CC000E02D099481E090E0F8940C94671610E0F0
:102CD000C9E7D0E004C0FE010E945C162196CA3705
:082CE000D107C9F7F894FFCFFA
:102CE800000000000F015F0BA6005C01D700B500D3
:102CF800C90000000000B4028702E402D2017F028A
:102D08006B025C0200000000D3015F0BE402D201F9
:102D180023023B02BA013D3D3D3D3D3D3D3D3D3D2C
:102D28003D3D3D3D3D3D3D3D3D3D3D3D3D3D3D3DCB
:102D38003D3D3D3D3D3D3D3D3D3D3D3D3D3D0063D2
:102D4800616C63756C617465206779726F206F665A
:102D5800667365747300444F204E4F54204D4F5690
:102D6800452041204D505536303530002E00446FF7
:102D78006E652121210058203A200059203A200070
:102D88005A203A200050726F6772616D2077696C23
:102D98006C207374617274206166746572203320CC
:102DA8007365636F6E64730041542B434D47463D12
:102DB800310D0A0041542B434D47533D22303934DD
:102DC80036343132323938220D0A0062616F20649C
:102DD8006F6E6720001A004154443039343634315C
:102DE800323239383B0D0A00206C65667400207257
:102DF80069676874002066726F6E74006E616E0099
:082E0800696E66006F7666003A
:00000001FF
