:100000000C9436010C944A010C944A010C944A0158
:100010000C944A010C944A010C944A010C944A0134
:100020000C944A010C944A010C944A010C944A0124
:100030000C944A010C944A010C944A010C944A0114
:100040000C944A010C944A010C944A010C944A0104
:100050000C944A010C944A010C944A010C94CB0173
:100060000C944A010C944A010C944A010C944A01E4
:100070000C944A010C944A010C944A010C944A01D4
:100080000C944A010C944A010C944A010C944A01C4
:100090000C944A010C944A010C944A010C944A01B4
:1000A0000C944A010C944A010C944A010C944A01A4
:1000B0000C944A010C944A010C944A010C944A0194
:1000C0000C944A010C944A010C944A010C944A0184
:1000D0000C944A010C944A010C944A010C944A0174
:1000E0000C944A0167016A0159015D016301A10194
:1000F0006E01720178017C01800186018A018E0106
:10010000A101940198019C010C9486010C94940126
:100110000C946A010C9478010C946E010C945901B2
:100120000C949C010C945D010C9498010C9480013A
:100130000C948A010C94A1010C9467010C94720137
:100140000C947C010C948E010C946301000021003E
:10015000240027002A002D00300033000101000098
:10016000040107010A0100002200250028002B00DD
:100170002E003100340002010000050108010B01CE
:10018000000020002300260029002C002F00320050
:100190000001000003010601090105050505070529
:1001A00008080808020202020A0A080804040404F3
:1001B000010101010101010103030303030303031F
:1001C000040707070C0C0C0C0C0C0C0C02020202AE
:1001D00006060606060606060B0B0B0B0B0B0B0B97
:1001E0000102102020080810204010204080020149
:1001F000020108040201010204081020408080402E
:10020000201008040201800402018040201008042C
:1002100002010804020101020408102040800102CA
:1002200004081020408000000A0B02090C0D0E0883
:1002300007030401000000000000000000000000AF
:1002400000000000000000000000000000000000AE
:10025000000012111000000000000000000000006B
:1002600000000000000000000000000011241FBE7C
:10027000CFEFD1E2DEBFCDBF00E00CBF22E0A0E0B7
:10028000B2E001C01D92A930B207E1F70E94150249
:100290000C94FF020C94000090E0FC013197E231D5
:1002A000F10508F04EC08827EE58FF4F8F4F0C9491
:1002B000F702809180008F7703C0809180008F7D4E
:1002C00080938000089580918000877FF9CF84B566
:1002D0008F7702C084B58F7D84BD08958091B00072
:1002E0008F7703C08091B0008F7D8093B000089518
:1002F000809190008F7707C0809190008F7D03C020
:1003000080919000877F8093900008958091A00055
:100310008F7707C08091A0008F7D03C08091A000DF
:10032000877F8093A0000895809120018F7707C078
:10033000809120018F7D03C080912001877F809371
:1003400020010895CF93DF93282F30E0F901EA5D73
:10035000FD4F8491F901E052FE4FD491F901E65628
:10036000FE4FC491CC2391F081110E944C01EC2FDF
:10037000F0E0EE0FFF1FE058FE4FA591B491EC9115
:10038000ED2381E090E021F480E002C080E090E085
:10039000DF91CF9108951F920F920FB60F92112403
:1003A0002F933F938F939F93AF93BF9380910502B9
:1003B00090910602A0910702B091080230910402C8
:1003C00023E0230F2D3720F40196A11DB11D05C098
:1003D00026E8230F0296A11DB11D209304028093ED
:1003E000050290930602A0930702B0930802809141
:1003F000000290910102A0910202B09103020196C5
:10040000A11DB11D8093000290930102A0930202EE
:10041000B0930302BF91AF919F918F913F912F9124
:100420000F900FBE0F901F901895789484B582603E
:1004300084BD84B5816084BD85B5826085BD85B588
:10044000816085BD80916E00816080936E00109206
:100450008100809181008260809381008091810081
:100460008160809381008091800081608093800012
:100470008091B10084608093B1008091B000816070
:100480008093B00080919100826080939100809170
:1004900091008160809391008091900081608093B1
:1004A00090008091A10082608093A1008091A100C2
:1004B00081608093A1008091A00081608093A00062
:1004C00080912101826080932101809121018160CE
:1004D000809321018091200181608093200180918F
:1004E0007A00846080937A0080917A0082608093A1
:1004F0007A0080917A00816080937A0080917A00FE
:10050000806880937A001092C100E3EEF1E02491BC
:10051000EDE9F1E084918823C1F090E0880F991F04
:10052000FC01E45BFE4FC591D491FC01EA59FE4FFA
:10053000A591B4919FB7F8948881322F3095832389
:100540008883EC91E22BEC939FBFCDEED1E0FE01CE
:10055000249107EA11E0F8018491882399F090E052
:10056000880F991FFC01E45BFE4FA591B491FC013B
:10057000EA59FE4F859194919FB7F8948C91822B04
:100580008C939FBF93E3E92E92E0F92E20E0C22ED8
:1005900020E0D22E83E00E94A201892B11F18DE090
:1005A0000E94A2015C01F7018491FE019490F80180
:1005B00084908820B1F081110E944C01E82DF0E078
:1005C000EE0FFF1FEA59FE4FA591B4919FB7F89423
:1005D0008C91AB2819F09094982201C0982A9C9293
:1005E0009FBFC114D104B1F20E940000D3CFEE0F1F
:1005F000FF1F881F8BBF0790F691E02D1994F89488
:02060000FFCF2A
:00000001FF
